:10000000C5C0DFC0DEC0DDC0DCC0DBC0DAC0D9C027
:10001000D8C0D7C0D6C06BC194C1D3C0D2C0D1C0E4
:10002000D0C0CFC0CEC09F01CF0067003300190001
:100030001000070048454C503A20466972737420FE
:1000400074776F2063686172616374657273206195
:1000500072652074686520636F6D6D616E643B200E
:10006000696D706C656D656E746564206172653A6A
:10007000004F66660050756C736520436F756E7433
:1000800073205250543A2020202020202000446524
:100090006C74612044542C2044502C20444D3A2050
:1000A0002020202020200054696D696E6773205441
:1000B000302C54312C54322C54332C54343A2000EC
:1000C000566F6C746167652056312C2056323A2089
:1000D00020202020202020200053657474696E6742
:1000E00073206368616E6E656C3A202020202020AA
:1000F000200053657474696E67733A0050617261D1
:100100006D65746572206D697373696E67206572C1
:10011000726F7200506172616D65746572206F75E7
:1001200074206F6620626F756E6473206572726FE3
:100130007200556E6B6E6F776E20636F6D6D616EC2
:1001400064005445524D3E20005374696D756C61D6
:10015000746F722056657273696F6E20322E303064
:100160002E303000436F6D6D616E64205465726D8A
:10017000696E616C206D6F6E69746F7220666F724C
:10018000207374696D756C61746F720011241FBEE9
:10019000CFE5D4E0DEBFCDBF12E0A0E6B0E0E8E8F6
:1001A000FFE002C005900D92A031B107D9F723E01E
:1001B000A0E1B2E001C01D92A734B207E1F731D04F
:1001C000E1C61ECFF8940FB6F894A89581B5886162
:1001D00081BD11BC0FBE8CE287BB8FEF88BB80E571
:1001E0008DB91EB880EC8FB9779BFECFC29882E0A4
:1001F0008FB9779BFECF8FE08FB9779BFECF84E8D6
:100200008FB9779BFECFC29A1DD0789408958091C4
:1002100043039091440301969093440380934303D6
:100220000895D0DFA3D5ABD5F2DFFDCFE82FF0E006
:10023000EE0FFF1FEC5DFF4F859194919F7090BD75
:1002400089B9089582E08BB988E98AB986E880BDCA
:1002500010929302109292021092110210921002C8
:1002600083E0E4DF10924503109246030895DC0119
:100270009091920220919302291789F0E92FF0E0E2
:10028000EC56FD4F80818C939F5F903621F09093C8
:10029000920280E008951092920280E0089581E039
:1002A00008959091110280911002981718F08058CB
:1002B000891B0895891B0895E091110291E09E0F1A
:1002C0000AF490E020911002921759F0F0E0EE5EEF
:1002D000FD4F8083F8949093110288EB8AB978944B
:1002E0000895809145038F5F8093450308951F9281
:1002F0000F920FB60F9211248F939F93EF93FF935A
:10030000E091930281E08E0F803608F080E09091BA
:100310009202891741F09CB1F0E0EC56FD4F9083BA
:100320008093930205C0809146038F5F80934603BC
:10033000FF91EF919F918F910F900FBE0F901F90A3
:1003400018951F920F920FB60F9211248F939F93BF
:10035000EF93FF93E0911002809111028E17A1F0AC
:10036000F0E0EE5EFD4F80818CB9809110028F5FCE
:100370001AF08093100202C01092100290911002A5
:1003800080911102981302C088E98AB9FF91EF9118
:100390009F918F910F900FBE0F901F901895982FDF
:1003A00080E3890F8A3310F087E3890F08950F9354
:1003B0001F93CF93DF93662369F0EC016150062F02
:1003C00010E00F5F1F4F080F191F899175DFC017CD
:1003D000D107D9F7DF91CF911F910F910895CF9257
:1003E000DF92EF92FF92CF93DF936B017C01EA01E2
:1003F000DC01CB01072E74E1B695A79597958795FB
:100400007A95D1F7702D8F70CADF8883C701B60146
:10041000662777278F709927C2DF8983D701C601A6
:10042000072E7CE0B695A795979587957A95D1F795
:10043000702D8F70B4DF8A83D701C60188279F7023
:10044000AA27BB27892FABDF8B83D701C601807F0B
:100450009927AA27BB27689413F8B695A79597956F
:1004600087951694D1F79BDF8C838C2D8F7097DF47
:100470008D838DE08E83DF91CF91FF90EF90DF90A1
:10048000CF9008951F93CF93DF93182FEB018295A0
:100490008F7085DF8883812F8F7081DF89838DE066
:1004A0008A83DF91CF911F9108956F927F928F92EF
:1004B0009F92AF92BF92CF92DF92EF92FF920F93F3
:1004C0001F93CF93DF93CDB7DEB7C054D1090FB6DA
:1004D000F894DEBF0FBECDBF8C014B015A0149D548
:1004E0006C0186E3C816D10408F04DC0A601B8011E
:1004F000CE01019635D5E1E0F0E0EC0FFD1FEC0DEB
:10050000FD1D8AE38083EFEFCE1ADE0AA114B10449
:1005100061F101E010E00C0F1D1F0C0D1D1DE12C01
:10052000F12C6894662465F8F8016082F401EE0D00
:10053000FF1D7080872D82958F7031DFF8018183D8
:10054000872D8F702CDFF8018283F3E0CF0ED11C52
:100550008CE3C816D10408F07501EFEFEE1AFE0A1D
:100560000D5F1F4FEA14FB04F8F2E1E0F0E0EC0F3E
:10057000FD1FEC0DFD1D8DE08083B6016F5F7F4F89
:10058000CE01019614DFC05CDF4F0FB6F894DEBFDA
:100590000FBECDBFDF91CF911F910F91FF90EF90D4
:1005A000DF90CF90BF90AF909F908F907F906F9093
:1005B0000895EF92FF920F931F93CF93DF93CDB7E0
:1005C000DEB7C054D1090FB6F894DEBF0FBECDBF61
:1005D0007C01CFD48C01CF9710F00EE310E0A8017E
:1005E000B701CE010196BCD4E1E0F0E0EC0FFD1FB5
:1005F000E00FF11F8DE08083FE01E00FF11F8AE024
:100600008283B8016E5F7F4FCE010196D0DEC05C61
:10061000DF4F0FB6F894DEBF0FBECDBFDF91CF9195
:100620001F910F91FF90EF900895EF92FF920F931B
:100630001F93CF93DF93CDB7DEB7C054D1090FB668
:10064000F894DEBF0FBECDBF7C0193D48C01813402
:10065000910510F000E410E0A801B701CE01019669
:100660007FD4602FCE010196A2DEC05CDF4F0FB6B3
:10067000F894DEBF0FBECDBFDF91CF911F910F91D8
:10068000FF90EF9008958B3028F4893058F4811151
:1006900007C008C08C3231F08A3321F0803211F06B
:1006A00080E0089581E008958DE006DE8AE004DEB2
:1006B00008958CE201DE80E2FFDD089589E491E097
:1006C00078DF089581E790E074DFE9E3F3E01082DA
:1006D0001182089582E491E0A8DFE5EFF2E085E37E
:1006E00093E01192E817F907E1F7089508C09AEF2F
:1006F0008091F4028F5F8093F4029150C9F7D1DDAD
:100700008035A8F30895BF92CF92DF92EF92FF92C7
:100710000F931F93CF93DF9384E390E04ADFC4DF0E
:100720000F2EF4E8EF2EF0E0FF2EF02D0F2EF8EA5A
:10073000CF2EF0E0DF2EF02DF701C281D381FE0134
:1007400001900020E9F73197BE2EBC1ACFDFBB2005
:1007500049F08E01C0E0F80181918F01ADDDCF5FDE
:10076000BC12F9CFA1DFF4E0EF0EF11CEC14FD0494
:1007700019F7DF91CF911F910F91FF90EF90DF90CC
:10078000CF90BF9008950F931F93CF93DF93EC0109
:100790008A01DB018C919E01280F311D50E0E0E0C1
:1007A000F0E02F5F3F4FD90111979C9190539A3001
:1007B00078F45F5F5630A8F7DF01AA0FBB1FAA0FBE
:1007C000BB1FEA0FFB1FEE0FFF1FE90FF11DE9CF63
:1007D000552351F0D801ED93FC932C1B3D0B215078
:1007E000FB01208381E001C080E0DF91CF911F9168
:1007F0000F9108950F931F93CF93DF9300D000D0F4
:100800001F92CDB7DEB78C011D82AE014F5F5F4FE7
:10081000BE016B5F7F4FB7DF811104C08CEF90E0AA
:10082000C8DE25C089819A810197029720F084E172
:1008300091E0BFDE1CC08D818F5F8D83AE014D5F67
:100840005F4FBE016B5F7F4FC8019DDF811104C008
:100850008CEF90E0AEDE0BC027DFE981FA81EE0F6E
:10086000FF1FED5CFC4F8B819C81918380830F90F7
:100870000F900F900F900F90DF91CF911F910F91DC
:100880000895CF92DF92EF92FF920F931F93CF9331
:10089000DF93CDB7DEB729970FB6F894DEBF0FBE52
:1008A000CDBF7C011986AE014F5F5F4FBE01675F10
:1008B0007F4F69DF811104C08CEF90E07ADE4CC07D
:1008C00089819A810197029720F084E191E071DE9D
:1008D00043C089858F5F89878E010D5F1F4F6E0131
:1008E00089E0C80ED11CA801BE01675F7F4FC70118
:1008F0004ADF811104C08CEF90E05BDE2DC089855A
:100900008F5F89870E5F1F4F0C151D0561F7CCDEC9
:100910002F8138852B30310520F084E191E049DECC
:100920001BC089819A810197FC01EE0FFF1FDF0137
:10093000A80FB91FAA0FBB1FA05ABF4F4B815C81E4
:1009400011965C934E934D815E8113965C934E930A
:100950001297FD013583248329960FB6F894DEBFE4
:100960000FBECDBFDF91CF911F910F91FF90EF9000
:10097000DF90CF900895AF92BF92CF92DF92EF9227
:10098000FF920F931F93CF93DF93CDB7DEB72D97D1
:100990000FB6F894DEBF0FBECDBF5C011D86AE0161
:1009A0004F5F5F4FBE01635F7F4FEDDE811104C07B
:1009B0008CEF90E0FEDD43C089819A810197029718
:1009C00020F084E191E0F5DD3AC08D858F5F8D8761
:1009D0007E0183E0E80EF11C6E01ADE0CA0ED11C71
:1009E0008701A801BE01635F7F4FC501CCDE811185
:1009F00004C08CEF90E0DDDD22C08D858F5F8D8798
:100A00000E5F1F4FC016D10661F74EDE89819A81B5
:100A10000197FC01EE0FFF1F880F991F880F991F88
:100A2000880F991FE80FF91FE459FF4FD7018D91E7
:100A30009D917D0181939193CA16DB06B9F72D969E
:100A40000FB6F894DEBF0FBECDBFDF91CF911F91DF
:100A50000F91FF90EF90DF90CF90BF90AF900895EF
:100A60000F931F93CF93DF93CDB7DEB727970FB6C2
:100A7000F894DEBF0FBECDBF8C011F82AE014F5F69
:100A80005F4FBE01695F7F4F7EDE811104C08CEF36
:100A900090E08FDD3EC089819A810197029720F016
:100AA00084E191E086DD35C08F818F5F8F83AE0159
:100AB0004D5F5F4FBE01695F7F4FC80164DE8823D1
:100AC00069F08F818F5F8F83AE014B5F5F4FBE01F7
:100AD000695F7F4FC80157DE811104C08CEF90E041
:100AE00068DD17C0E1DD8B819C818333910528F49B
:100AF0002D813E812333310520F084E191E059DDE1
:100B000008C0E981FA81EE0FFF1FE258FF4F808392
:100B1000218327960FB6F894DEBF0FBECDBFDF91BD
:100B2000CF911F910F910895CF93DF9300D01F9223
:100B3000CDB7DEB71B82AE014F5F5F4FBE016D5F69
:100B40007F4F21DE811104C08CEF90E032DD21C0A7
:100B500089819A819C01215031092330310520F08F
:100B600084E191E026DD15C08230910549F08330A3
:100B7000910551F0019769F481E08093390309C030
:100B800081E080933A0305C0E9E3F3E081E08083EC
:100B900081830F900F900F90DF91CF910895FF9276
:100BA0000F931F93CF93DF9300D000D01F92CDB748
:100BB000DEB7AC01FE0131968E010A5F1F4F9A012C
:100BC000ADECBCECB9D196958795969587959695A1
:100BD00087959C01220F331F880F991F880F991F3B
:100BE000880F991F820F931F9A01281B390B21939D
:100BF0009A01A2D1AC0156954795569547955695C1
:100C000047950E171F07D9F600E015E0FF24F3946F
:100C10001150E1E0F0E0EC0FFD1FE10FF11D8081CC
:100C2000811105C0112329F0002391F303C00F2D7A
:100C300001C00F2D805D40DB1111EACF0F900F90A6
:100C40000F900F900F90DF91CF911F910F91FF9018
:100C500008956F927F928F929F92AF92BF92CF92A0
:100C6000DF92EF92FF921F93CF93DF9382EF90E09A
:100C7000A0DC0F2EF0E8EF2EF0E0FF2EF02D0F2E6F
:100C8000F0E66F2EF0E07F2EF02D0F2EF5E38F2E85
:100C9000F3E09F2EF02D0F2EFCE6AF2EF0E0BF2EDE
:100CA000F02DCC24C394D12CFFDC20DD89ED90E025
:100CB000BCDCC60174DFF8DC19DD80EC90E0B5DC4B
:100CC000F701808190E06BDFF4DCF701818190E037
:100CD00066DFEADC0BDD87EA90E0A7DCE50110E0E7
:100CE000899199915CDF143008F4E3DC1F5F1530C3
:100CF000B9F7DADCFBDC8EE890E097DCF301808169
:100D000091814DDFD6DCF3018281938148DFD1DC14
:100D1000F3018481958143DFC7DCE8DC85E790E05F
:100D200084DCF401819191914F0139DFBDDCFFEF4B
:100D3000CF1ADF0A82E0E80EF11CE6E06E0E711CAD
:100D4000FAE0AF0EB11C83E0C816D10409F0ACCFB5
:100D5000DF91CF911F91FF90EF90DF90CF90BF90E8
:100D6000AF909F908F907F906F9008959DDC84E668
:100D700091E01FDC89E491E01CDCACDC0895DF929B
:100D8000EF92FF920F931F93CF93DF931F92CDB7F4
:100D9000DEB7CE0101966BDA8111C5C0898188303A
:100DA00019F08D3041F108C08091F502882301F1DE
:100DB000E6EFF2E011E00BC09091F502992391F17A
:100DC000E6EFF2E011E026C01F5F103429F08191B8
:100DD0008111FACF112361F088E06EDA80E26CDADB
:100DE00089816ADAE12FF0E0EC50FD4F10829BC060
:100DF00087E062DA98C058DC8091F502811125C045
:100E00000F2EF5EFEF2EF2E0FF2EF02D7AC01F5FD0
:100E1000103429F091919111FACF103421F487E028
:100E20004BDA81C010E048DA898190E091D0E12F5F
:100E3000F0E0EB50FD4F808376C08FEFE81AF80AA0
:100E4000D7018C91811107C05CC00F2EF5EFEF2EFA
:100E5000F2E0FF2EF02D17DC8111EFCFF701D080EB
:100E6000D11009C087014FC00F5F1F4FD801DC9020
:100E7000D11002C00BC087018D2D05DC8823A1F3A2
:100E8000DD2021F0F80110820F5F1F4FD8018C91F7
:100E9000811107C038C00F5F1F4FF8018081882380
:100EA00091F1F1DB8111F7CF2EC0D7013C91E4E83D
:100EB000F0E080E090E062817381DB012C913213DD
:100EC0002CC0D70111964C91DB0111962C91421345
:100ED00024C0893091056CF4880F991F880F991FE1
:100EE000FC01EC57FF4F0190F081E02DC8010995FE
:100EF00006C082E391E05DDB80E090E004DCEADBA9
:100F000012C08701C3CFF70101900020E9F73197A4
:100F1000EE19FF09329748F6F2CF019634968930E0
:100F2000910549F6E6CF0F90DF91CF911F910F9178
:100F3000FF90EF90DF900895A29FB001B39FC00192
:100F4000A39F01D0B29F700D811D1124911D0895A2
:100F50009111089581568A5108F480528558089558
:100F6000FB01DC0102C005900D9241505040D8F7C2
:100F70000895FC0105900020E9F7809590958E0F6B
:080F80009F1F0895F894FFCFB4
:100F8800640050C30400000050C3040050C3640050
:100F98000A00C800102750C364000A00C800E02EE9
:100FA800190A190A8303A8005E03B1009405C20058
:100FB8006203DE002906F60030050801BB0456016D
:100FC8004104A401FA03E9014845202048456C7012
:100FD800005645202053686F772056457273696F15
:100FE8006E00525520203C312E2E333E2052556E35
:100FF8002053746172742070756C736573004F466A
:10100800202053657420616C6C206F757470757442
:1010180073204F4666005353202053686F77205340
:10102800657474696E677300535620203C312E2E08
:10103800323E2C3C302E2E35303E2C3C302E2E3578
:10104800303E2053657420566F6C74616765206F5D
:101058006E2031206F7220322C20706F7369746992
:10106800766520616E64206E6567617469766520B7
:1010780070756C736500535420203C312E2E323E1F
:101088002C3C302E2E36353533353E2C2E2E2C3C2E
:10109800302E2E36353533353E205365742054694D
:1010A8006D696E67206F6E2031206F7220323B2091
:1010B800352074696D696E6720706172616D657441
:1010C80065727300534420203C312E2E323E2C3C56
:1010D800302E2E36353533353E2C3C302E2E3635D7
:1010E8003533353E2C3C302E2E3235353E20536577
:1010F800742044656C74612074696D696E67206F33
:101108006E2031206F72203200534320203C312E54
:101118002E323E2C3C302E2E36353533353E20537C
:1011280065742072657065617420636F756E7400F4
:00000001FF
