:1000000094C0AEC0ADC0ACC0ABC0AAC0A9C0A8C0AF
:10001000A7C0A6C0A5C03AC163C1A2C0A1C0A0C06C
:100020009FC09EC09DC09F01CF0067003300190094
:100030001000070048454C503A20466972737420FE
:1000400074776F2063686172616374657273206195
:1000500072652074686520636F6D6D616E643B200E
:10006000696D706C656D656E746564206172653A6A
:10007000004F66660073657474696E677300566F2F
:100080006C7473200054696D657320005061726157
:100090006D65746572206D697373696E6720657232
:1000A000726F7200506172616D65746572206F7558
:1000B00074206F6620626F756E6473206572726F54
:1000C000720044656C7461732000636F756E740018
:1000D000556E6B6E6F776E20636F6D6D616E640031
:1000E0005445524D3E20005374696D756C61746FB8
:1000F000722056657273696F6E20322E30302E304A
:100100003000436F6D6D616E64205465726D696E71
:10011000616C206D6F6E69746F7220666F722073F0
:1001200074696D756C61746F720011241FBECFE528
:10013000D4E0DEBFCDBF12E0A0E6B0E0E0EEFCE030
:1001400002C005900D92A031B107D9F723E0A0E1DC
:10015000B2E001C01D92A734B207E1F731D0BEC5AD
:100160004FCFF8940FB6F894A89581B5886181BDFA
:1001700011BC0FBE8CE287BB8FEF88BB80E58DB9C9
:100180001EB880EC8FB9779BFECFC29882E08FB902
:10019000779BFECF8FE08FB9779BFECF84E88FB936
:1001A000779BFECFC29A1DD0789408958091430327
:1001B00090914403019690934403809343030895E0
:1001C000D0DF8CD494D4F2DFFDCFE82FF0E0EE0F37
:1001D000FF1FEC5DFF4F859194919F7090BD89B991
:1001E000089582E08BB988E98AB986E880BD1092CB
:1001F000930210929202109211021092100283E068
:10020000E4DF10924503109246030895DC019091BB
:10021000920220919302291789F0E92FF0E0EC5621
:10022000FD4F80818C939F5F903621F090939202D6
:1002300080E008951092920280E0089581E0089590
:100240009091110280911002981718F08058891B24
:100250000895891B0895E091110291E09E0F0AF420
:1002600090E020911002921759F0F0E0EE5EFD4F01
:100270008083F8949093110288EB8AB9789408955A
:10028000809145038F5F8093450308951F920F92DD
:100290000FB60F9211248F939F93EF93FF93E091EA
:1002A000930281E08E0F803608F080E090919202F8
:1002B000891741F09CB1F0E0EC56FD4F908380939C
:1002C000930205C0809146038F5F80934603FF91A0
:1002D000EF919F918F910F900FBE0F901F901895E7
:1002E0001F920F920FB60F9211248F939F93EF934B
:1002F000FF93E0911002809111028E17A1F0F0E0BF
:10030000EE5EFD4F80818CB9809110028F5F1AF0F4
:100310008093100202C010921002909110028091FE
:100320001102981302C088E98AB9FF91EF919F9159
:100330008F910F900FBE0F901F901895982F80E30C
:10034000890F8A3310F087E3890F08950F931F9365
:10035000CF93DF93662369F0EC016150062F10E024
:100360000F5F1F4F080F191F899175DFC017D10745
:10037000D9F7DF91CF911F910F910895CF92DF921E
:10038000EF92FF92CF93DF936B017C01EA01DC01D6
:10039000CB01072E74E1B695A795979587957A9529
:1003A000D1F7702D8F70CADF8883C701B601662729
:1003B00077278F709927C2DF8983D701C601072E5F
:1003C0007CE0B695A795979587957A95D1F7702D8E
:1003D0008F70B4DF8A83D701C60188279F70AA2750
:1003E000BB27892FABDF8B83D701C601807F99277D
:1003F000AA27BB27689413F8B695A7959795879574
:100400001694D1F79BDF8C838C2D8F7097DF8D83B3
:100410008DE08E83DF91CF91FF90EF90DF90CF90B2
:1004200008951F93CF93DF93182FEB0182958F7060
:1004300085DF8883812F8F7081DF89838DE08A83B8
:10044000DF91CF911F9108956F927F928F929F922B
:10045000AF92BF92CF92DF92EF92FF920F931F93D2
:10046000CF93DF93CDB7DEB7C054D1090FB6F89460
:10047000DEBF0FBECDBF8C014B015A0126D46C01EB
:1004800086E3C816D10408F04DC0A601B801CE011C
:10049000019612D4E1E0F0E0EC0FFD1FEC0DFD1D24
:1004A0008AE38083EFEFCE1ADE0AA114B10461F172
:1004B00001E010E00C0F1D1F0C0D1D1DE12CF12C97
:1004C0006894662465F8F8016082F401EE0DFF1D62
:1004D0007080872D82958F7031DFF8018183872DA1
:1004E0008F702CDFF8018283F3E0CF0ED11C8CE3F8
:1004F000C816D10408F07501EFEFEE1AFE0A0D5F81
:100500001F4FEA14FB04F8F2E1E0F0E0EC0FFD1FEE
:10051000EC0DFD1D8DE08083B6016F5F7F4FCE0136
:10052000019614DFC05CDF4F0FB6F894DEBF0FBE3C
:10053000CDBFDF91CF911F910F91FF90EF90DF9092
:10054000CF90BF90AF909F908F907F906F900895C5
:10055000EF92FF920F931F93CF93DF93CDB7DEB748
:10056000C054D1090FB6F894DEBF0FBECDBF7C01D9
:10057000ACD38C01CF9710F00EE310E0A801B701C7
:10058000CE01019699D3E1E0F0E0EC0FFD1FE00F02
:10059000F11F8DE08083FE01E00FF11F8AE082836E
:1005A000B8016E5F7F4FCE010196D0DEC05CDF4F99
:1005B0000FB6F894DEBF0FBECDBFDF91CF911F9174
:1005C0000F91FF90EF900895EF92FF920F931F937A
:1005D000CF93DF93CDB7DEB7C054D1090FB6F894EF
:1005E000DEBF0FBECDBF7C0170D38C01813491057D
:1005F00010F000E410E0A801B701CE0101965CD331
:10060000602FCE010196A2DEC05CDF4F0FB6F894DA
:10061000DEBF0FBECDBFDF91CF911F910F91FF9035
:10062000EF9008958B3028F4893058F4811107C079
:1006300008C08C3231F08A3321F0803211F080E032
:10064000089581E008958DE006DE8AE004DE0895D5
:1006500087EE90E07DDF08958AEC90E079DF0895E1
:1006600085E790E075DF089581E790E071DFE9E3C9
:10067000F3E010821182089580EE90E0A5DFE5EFAF
:10068000F2E085E393E01192E817F907E1F70895A6
:10069000CF92DF92EF92FF920F931F93CF93DF934E
:1006A00084E390E055DFCFDF0F2EF4E8EF2EF0E08B
:1006B000FF2EF02D0F2EF8EACF2EF0E0DF2EF02DDA
:1006C000F70102811381F80101900020E9F73197C9
:1006D000DE2FD01B08C09AEF8091F4028F5F8093C9
:1006E000F4029150C9F7ACDD8035A8F3DD2341F069
:1006F000C0E0F80181918F01AEDDCF5FDC13F9CF4F
:10070000A2DFF4E0EF0EF11CEC14FD04C9F6DF915A
:10071000CF911F910F91FF90EF90DF90CF900895B0
:100720000F931F93CF93DF93EC018A01DB018C9130
:100730009E01280F311D50E0E0E0F0E02F5F3F4FB9
:10074000D90111979C9190539A3078F45F5F56309D
:10075000A8F7DF01AA0FBB1FAA0FBB1FEA0FFB1FE1
:10076000EE0FFF1FE90FF11DE9CF552351F0D8011E
:10077000ED93FC932C1B3D0B2150FB01208381E06A
:1007800001C080E0DF91CF911F910F910895CF922A
:10079000DF92EF92FF920F931F93CF93DF93CDB72A
:1007A000DEB729970FB6F894DEBF0FBECDBF7C0130
:1007B0001986AE014F5F5F4FBE01675F7F4FB0DFAD
:1007C000811104C08CE890E0C3DE54C089819A8115
:1007D0000197029720F084EA90E0BADE4BC0898549
:1007E0008F5F89878E010D5F1F4F6E0189E0C80EF4
:1007F000D11CA801BE01675F7F4FC70191DF811146
:1008000004C08CE890E0A4DE35C089858F5F8987BD
:100810000E5F1F4F0C151D0561F746E050E0BE014D
:100820006D5F7F4F82EC90E00FDE0DDF2F8138850A
:100830002B30310520F084EA90E08ADE1BC08981EC
:100840009A810197FC01EE0FFF1FDF01A80FB91F6E
:10085000AA0FBB1FA05ABF4F4B815C8111965C93BE
:100860004E934D815E8113965C934E931297FD01DA
:100870003583248329960FB6F894DEBF0FBECDBF13
:10088000DF91CF911F910F91FF90EF90DF90CF906C
:100890000895AF92BF92CF92DF92EF92FF920F93A3
:1008A0001F93CF93DF93CDB7DEB72D970FB6F89494
:1008B000DEBF0FBECDBF5C011D86AE014F5F5F4F37
:1008C000BE01635F7F4F2CDF811104C08CE890E094
:1008D0003FDE4BC089819A810197029720F084EA1C
:1008E00090E036DE42C08D858F5F8D877E0183E08C
:1008F000E80EF11C6E01ADE0CA0ED11C8701A80103
:10090000BE01635F7F4FC5010BDF811104C08CE81E
:1009100090E01EDE2AC08D858F5F8D870E5F1F4F92
:10092000C016D10661F74AE050E0BE016D5F7F4F0F
:1009300085E890E089DD87DE89819A810197FC0155
:10094000EE0FFF1F880F991F880F991F880F991F9F
:10095000E80FF91FE459FF4FD7018D919D917D015B
:1009600081939193CA16DB06B9F72D960FB6F894CA
:10097000DEBF0FBECDBFDF91CF911F910F91FF90D2
:10098000EF90DF90CF90BF90AF9008950F931F939B
:10099000CF93DF93CDB7DEB727970FB6F894DEBFBE
:1009A0000FBECDBF8C011F82AE014F5F5F4FBE01F6
:1009B000695F7F4FB5DE811104C08CE890E0C8DD2F
:1009C00046C089819A810197029720F084EA90E0DD
:1009D000BFDD3DC08F818F5F8F83AE014D5F5F4F65
:1009E000BE01695F7F4FC8019BDE882369F08F815C
:1009F0008F5F8F83AE014B5F5F4FBE01695F7F4F9B
:100A0000C8018EDE811104C08CE890E0A1DD1FC01A
:100A100044E050E0BE016D5F7F4F8EE790E014DD53
:100A200012DE8B819C818333910528F42D813E81D8
:100A30002333310520F084EA90E08ADD08C0E981A3
:100A4000FA81EE0FFF1FE258FF4F80832183279624
:100A50000FB6F894DEBF0FBECDBFDF91CF911F91CF
:100A60000F910895CF93DF9300D01F92CDB7DEB7DB
:100A70001B82AE014F5F5F4FBE016D5F7F4F50DE47
:100A8000811104C08CE890E063DD21C089819A81E6
:100A90009C01215031092330310520F084EA90E097
:100AA00057DD15C08230910549F08330910551F032
:100AB000019769F481E08093390309C081E0809354
:100AC0003A0305C0E9E3F3E081E0808381830F907E
:100AD0000F900F90DF91CF9108950895B4DD82E0DB
:100AE00091E036DD87EE90E033DDC6DD0895DF92DC
:100AF000EF92FF920F931F93CF93DF931F92CDB787
:100B0000DEB7CE01019682DB8111C5C089818830B4
:100B100019F08D3041F108C08091F502882301F170
:100B2000E6EFF2E011E00BC09091F502992391F10C
:100B3000E6EFF2E011E026C01F5F103429F081914A
:100B40008111FACF112361F088E085DB80E283DB3D
:100B5000898181DBE12FF0E0EC50FD4F10829BC0DA
:100B600087E079DB98C06FDD8091F502811125C0A7
:100B70000F2EF5EFEF2EF2E0FF2EF02D7AC01F5F63
:100B8000103429F091919111FACF103421F487E0BB
:100B900062DB81C010E05FDB898190E085D0E12FCE
:100BA000F0E0EB50FD4F808376C08FEFE81AF80A33
:100BB000D7018C91811107C05CC00F2EF5EFEF2E8D
:100BC000F2E0FF2EF02D2EDD8111EFCFF701D08066
:100BD000D11009C087014FC00F5F1F4FD801DC90B3
:100BE000D11002C00BC087018D2D1CDD8823A1F31D
:100BF000DD2021F0F80110820F5F1F4FD8018C918A
:100C0000811107C038C00F5F1F4FF8018081882312
:100C100091F108DD8111F7CF2EC0D7013C91E4E8B6
:100C2000F0E080E090E062817381DB012C9132136F
:100C30002CC0D70111964C91DB0111962C914213D7
:100C400024C0893091056CF4880F991F880F991F73
:100C5000FC01EC57FF4F0190F081E02DC801099590
:100C600006C080ED90E074DC80E090E011DD04DDF2
:100C700012C08701C3CFF70101900020E9F7319737
:100C8000EE19FF09329748F6F2CF01963496893073
:100C9000910549F6E6CF0F90DF91CF911F910F910B
:100CA000FF90EF90DF9008959111089581568A5139
:100CB00008F4805285580895FB01DC0102C00590BC
:100CC0000D9241505040D8F70895FC010590002046
:100CD000E9F7809590958E0F9F1F0895F894FFCFA8
:100CE000640050C30400000050C3040050C36400FB
:100CF0000A00C800102750C364000A00C800E02E94
:100D0000190A190A4803A8002803B1003205C200D5
:100D10003403DE003003F600C6040801490456011E
:100D2000C703A4012C03E9014845202048456C7005
:100D3000005645202053686F772056457273696FBF
:100D40006E00525520203C312E2E333E2052556EDF
:100D50002053746172742070756C736573004F4614
:100D6000202053657420616C6C206F7574707574ED
:100D700073204F4666005353202053686F772053EB
:100D8000657474696E677300535620203C312E2EB3
:100D9000323E2C3C302E2E35303E2C3C302E2E3523
:100DA000303E2053657420566F6C74616765206F08
:100DB0006E2031206F7220322C20706F736974693D
:100DC000766520616E64206E656761746976652062
:100DD00070756C736500535420203C312E2E323ECA
:100DE0002C3C302E2E36353533353E2C2E2E2C3CD9
:100DF000302E2E36353533353E20536574205469F8
:100E00006D696E67206F6E2031206F7220323B203B
:100E1000352074696D696E6720706172616D6574EB
:100E200065727300534420203C312E2E323E2C3C00
:100E3000302E2E36353533353E2C3C302E2E363581
:100E40003533353E2C3C302E2E3235353E20536521
:100E5000742044656C74612074696D696E67206FDD
:100E60006E2031206F72203200534320203C312EFF
:100E70002E323E2C3C302E2E36353533353E205327
:100E800065742072657065617420636F756E74009F
:00000001FF
