:10000000E5C0FFC0FEC0FDC0FCC0FBC0FAC0F9C027
:10001000F8C0F3C8F6C0C9C1F2C1F3C0F2C0F1C064
:10002000F0C0EFC0EEC09F01CF00670033001900A1
:100030001000070048454C503A20466972737420FE
:1000400074776F2063686172616374657273206195
:1000500072652074686520636F6D6D616E643B200E
:10006000696D706C656D656E746564206172653A6A
:10007000004F66660050756C736520436F756E7433
:1000800073205250543A2020202020202000446524
:100090006C74612044542C2044502C20444D3A2050
:1000A0002020202020200054696D696E6773205441
:1000B000302C54312C54322C54332C54343A2000EC
:1000C000566F6C746167652056312C2056323A2089
:1000D00020202020202020200053657474696E6742
:1000E00073206368616E6E656C3A202020202020AA
:1000F000200053657474696E67733A0050617261D1
:100100006D65746572206D697373696E67206572C1
:10011000726F7200506172616D65746572206F75E7
:1001200074206F6620626F756E6473206572726FE3
:10013000720057726974696E6720746F206565700C
:10014000726F6D00556E6B6E6F776E20636F6D6DA5
:10015000616E64005445524D3E20005374696D75C4
:100160006C61746F722056657273696F6E20322EE7
:1001700030302E303000436F6D6D616E64205465F9
:10018000726D696E616C206D6F6E69746F7220663E
:100190006F72207374696D756C61746F72000D0AF3
:1001A00074696D653320000D0A4E6F50756C736570
:1001B00020000D0A50756C736520000D0A74696D7E
:1001C00065312000535441525420000011241FBEB9
:1001D000CFE5D4E0DEBFCDBF12E0A0E6B0E0EEE2B6
:1001E000F6E102C005900D92A031B107D9F723E0E6
:1001F000A0E1B2E001C01D92AD36B207E1F7CDD962
:1002000014CAFECE9298C1980895F8940FB6F89447
:10021000A89581B5886181BD11BC0FBE8CEF81BBF3
:1002200012BA8EE287BB8FEF88BB80E58DB91EB80E
:1002300080EC8FB9779BFECFC29882E08FB9779B15
:10024000FECF8FE08FB9779BFECF84E88FB9779B85
:10025000FECFC29A7894D6DF9698949808958D7FB1
:1002600071F0862F880F880F680FC29882E18FB9CE
:10027000779BFECF6FB9779BFECFC29A0895862FEA
:10028000880F880F680FC29881E18FB9779BFECFE6
:100290006FB9779BFECFC29A0895813039F461110E
:1002A00011C09398C098929AC19A0895611105C09F
:1002B00097989598969A949A0895979A959A969A57
:1002C000949A0895939AC09A929AC19A089588230D
:1002D00019F096989498089595CFE82FF0E0EE0FD6
:1002E000FF1FEC5DFF4F859194919F7090BD89B980
:1002F000089582E08BB988E98AB986E880BD1092BA
:100300009302109292021092110210921002EAE2ED
:10031000F0E0859194919F7090BD89B910923E0351
:1003200010923F030895DC01909192022091930274
:10033000291789F0E92FF0E0EC56FD4F80818C936E
:100340009F5F903621F09093920280E00895109282
:10035000920280E0089581E00895909111028091C9
:100360001002981710F4891B08958058891B08956E
:10037000E091110291E09E0F97FD15C020911002AF
:10038000921759F0F0E0EE5EFD4F8083F894909361
:10039000110288EB8AB97894089580913E038F5FAB
:1003A00080933E03089590E0E9CF1F920F920FB61D
:1003B0000F9211248F939F93EF93FF93E0919302F9
:1003C00081E08E0F803608F080E0909192028917CC
:1003D00081F09CB1F0E0EC56FD4F90838093930246
:1003E000FF91EF919F918F910F900FBE0F901F90F3
:1003F000189580913F038F5F80933F03F1CF1F9249
:100400000F920FB60F9211248F939F93EF93FF9348
:10041000E0911002809111028E17C9F0F0E0EE5EBB
:10042000FD4F80818CB9809110028F5F87FD12C0D3
:100430008093100290911102981749F0FF91EF916B
:100440009F918F910F900FBE0F901F90189588E984
:100450008AB9F4CF1092100280E0ECCF0F931F9373
:10046000CF93DF93662369F0EC016150062F10E013
:100470000F5F1F4F080F191F89917ADFC017D1072F
:10048000D9F7DF91CF911F910F9108950F931F938B
:10049000FA018B019C0100271127207F3327B4E14B
:1004A0003695279517950795BA95D1F740E3400FF4
:1004B0004A3310F047E3400F40838B019C01002733
:1004C00011272F70332789012227332740E3400F5C
:1004D0004A3310F047E3400F41838B019C01002712
:1004E000107F222733275CE03695279517950795CF
:1004F0005A95D1F740E3400F4A3310F047E3400FDD
:1005000042838B019C0100271F7022273327012F74
:10051000122F232F332740E3400F4A3310F047E3D5
:10052000400F43838B019C01007F11272227332733
:1005300084E036952795179507958A95D1F740E37E
:10054000400F4A3310F047E3400F44836F7080E35D
:10055000860F8A3310F087E3860F85838DE08683CC
:100560001F910F910895FB01282F22952F7090E382
:10057000920F9A3310F097E3920F90838F7090E36D
:10058000980F9A3310F097E3980F91838DE0828350
:100590000895AF92BF92CF92DF92EF92FF920F93A6
:1005A0001F93CF93DF93CDB7DEB7C054D1090FB6F9
:1005B000F894DEBF0FBECDBF5C017B018A0113D86A
:1005C0006C0186E3C816D10490F0C05CDF4F0FB613
:1005D000F894DEBF0FBECDBFDF91CF911F910F9179
:1005E000FF90EF90DF90CF90BF90AF900895A6015D
:1005F000B501CE010196EED7E1E0F0E0EC0FFD1F72
:10060000EC0DFD1D8AE38083A6014F5F5F4F01154E
:10061000110561F1E1E0F0E0EC0FFD1FE40FF51FC3
:1006200020E030E070E27083D701A20FB31F9C91ED
:10063000692F62956F7080E3860F8A3310F087E32D
:10064000860F81839F7080E3890F8A3310F087E3E0
:10065000890F82834D5F5F4F4C33510508F098013D
:100660002F5F3F4F339620173107E8F2E1E0F0E0CB
:10067000EC0FFD1FE40FF51F8DE0808311E0140FD8
:1006800009F4A3CFFE0131967F0100E0F7018191CB
:100690007F016EDE0F5F0117C8F397CFEF92FF92D5
:1006A0000F931F93CF93DF93CDB7DEB7C054D1091B
:1006B0000FB6F894DEBF0FBECDBF7C0194D78C017E
:1006C000CF9710F00EE310E0A801B701CE0101961C
:1006D00081D7E1E0F0E0EC0FFD1FE00FF11F8DE0AE
:1006E0008083FE01E00FF11F8AE082830E5FCE015E
:1006F00001967C0110E0F70181917F0139DE1F5FD7
:100700001017C8F3C05CDF4F0FB6F894DEBF0FBE02
:10071000CDBFDF91CF911F910F91FF90EF90089582
:10072000EF92FF920F931F93CF93DF93CDB7DEB776
:10073000C054D1090FB6F894DEBF0FBECDBF8C01F7
:1007400052D77C0181E4E816F10418F080E4E82E29
:10075000F12CA701B801CE0101963CD7EE2089F01B
:100760008E010F5F1F4FEA94F12CEFEFEE1AFE0A95
:10077000E00EF11EF80181918F01FADD0E151F05C3
:10078000C9F7C05CDF4F0FB6F894DEBF0FBECDBF18
:10079000DF91CF911F910F91FF90EF9008958BE51E
:1007A00091E07CCF81E790E079DF109243030895D8
:1007B000DC01AC0160E020E030E04F5F5F4FFA0108
:1007C0003197908190539A3078F46F5F6630A8F734
:1007D000F901EE0FFF1FEE0FFF1F2E0F3F1F220F1D
:1007E000331F290F311DE9CF662381F14A1B5B0BB3
:1007F000215031092230310560F5FD01E40FF11D72
:1008000060E040E050E0919190539A3090F46F5F37
:100810006630C8F7DA01AA0FBB1FAA0FBB1F4A0F29
:100820005B1F440F551F490F511D919190539A30F2
:1008300070F3662359F085E1829FF001839FF00DEC
:100840001124ED5BFC4F548B438B08958CEF90E0AB
:1008500025CF84E191E022CFCF92DF92EF92FF92F9
:100860000F931F93CF93DF9300D000D000D0CDB76C
:10087000DEB7BC019C0180E040E050E02F5F3F4FBD
:10088000F9013197908190539A3078F48F5F8630D8
:10089000A8F7FA01EE0FFF1FEE0FFF1F4E0F5F1FAD
:1008A000440F551F490F511DE9CF811111C08CEF25
:1008B00090E026960FB6F894DEBF0FBECDBFDF9155
:1008C000CF911F910F91FF90EF90DF90CF90E6CEE8
:1008D000415051094230510518F084E191E0E9CFCF
:1008E000261BCE0101966C018E01095F1F4FDB01B3
:1008F000A20FB11D9D0180E0E0E0F0E02F5F3F4FCF
:10090000D90111979C9190539A3078F48F5F86307B
:10091000A8F77F01EE0CFF1CEE0CFF1CEE0DFF1D77
:10092000EE0FFF1FE90FF11DE9CF882309F4BFCFB8
:10093000D601ED93FD936D01261BA017B107B9F603
:100940008D819E818B30910540F625E1249FF00139
:10095000259FF00D1124ED5BFC4F29813A813687EC
:1009600025872B813C81308B2787928B818B269624
:100970000FB6F894DEBF0FBECDBFDF91CF911F91B0
:100980000F91FF90EF90DF90CF9008956F927F923C
:100990008F929F92AF92BF92CF92DF92EF92FF928F
:1009A0000F931F93CF93DF93CDB7DEB72A970FB680
:1009B000F894DEBF0FBECDBF3C019C0180E0E0E0BB
:1009C000F0E02F5F3F4FA90141505109DA019C919E
:1009D00090539A3078F48F5F863098F7AF01440FC8
:1009E000551F440F551FE40FF51FEE0FFF1FE90FB2
:1009F000F11DE7CF811117C08CEF90E02A960FB65A
:100A0000F894DEBF0FBECDBFDF91CF911F910F9144
:100A1000FF90EF90DF90CF90BF90AF909F908F901E
:100A20007F906F903BCE4F01B1E08B1A9108E2E0CE
:100A30008E16910418F084E191E0E0CF26198E0122
:100A40000F5F1F4F6E01FBE0CF0ED11C7801C30179
:100A5000820F911D9C0140E060E070E02F5F3F4FEE
:100A6000F9013197908190539A3078F44F5F463076
:100A7000A8F75B01AA0CBB1CAA0CBB1C6A0D7B1D52
:100A8000660F771F690F711DE9CF442309F4B4CFB6
:100A9000D7016D937D937D012619AC15BD05B9F67F
:100AA00025E1289DC001299D900D1124FC01EA5BE0
:100AB000FC4FD8018D919D918D0181939193AC153F
:100AC000BD05B9F72A960FB6F894DEBF0FBECDBFAD
:100AD000DF91CF911F910F91FF90EF90DF90CF901A
:100AE000BF90AF909F908F907F906F900895DC01A2
:100AF000AC0160E020E030E04F5F5F4FFA013197DA
:100B0000908190539A3078F46F5F6630A8F7F901BE
:100B1000EE0FFF1FEE0FFF1F2E0F3F1F220F331F81
:100B2000290F311DE9CF662361F04A1B5B0B215071
:100B300031092230310540F084E191E0AFCD9111CF
:100B400021C08CEF90E0AACDCD01840F911DAC01A6
:100B500090E060E070E04F5F5F4FFA013197808175
:100B600080538A3060F79F5F9630A8F7FB01EE0F45
:100B7000FF1FEE0FFF1F6E0F7F1F660F771F680F9F
:100B8000711DE9CF4A1B5B0BA40FB11D80E040E053
:100B900050E09D9190539A3090F48F5F8630C8F763
:100BA000FA01EE0FFF1FEE0FFF1F4E0F5F1F440FE6
:100BB000551F490F511D9D9190539A3070F3882312
:100BC00009F4BFCF6333710508F0B6CF4333510545
:100BD00008F0B2CF85E1829FF001839FF00D1124D0
:100BE000ED5BFC4F618342830895FC0140E020E00F
:100BF00030E0919190539A3090F44F5F4630C8F7AF
:100C0000B901660F771F660F771F260F371F220F58
:100C1000331F290F311D919190539A3070F3411178
:100C200003C08CEF90E03ACDC9010197039768F4B7
:100C300081E02230310531F08093430323303105C8
:100C400009F0089580935803089584E191E026CD3A
:100C50000F931F93CF93DF9382E391E01FDD03E4B3
:100C600013E0C0E0D0E0F80161918F01CE01CCD457
:100C70002196F0E0CA32DF07B1F7DF91CF911F91E3
:100C80000F910895AF92BF92CF92DF92EF92FF92B1
:100C90000F931F93CF93DF931F92CDB7DEB784E3FB
:100CA00090E0FCDC8DE064DB8AE062DB86E6C82E47
:100CB00080E0D82E9AE8A92E90E0B92EE8E0F0E086
:100CC00028E8E22E20E0F22E0E2F03C089818F5FEC
:100CD000898343DB8035D0F3002341F010E0F70136
:100CE00081917F0145DB1F5F0113F9CF8DE040DB70
:100CF0008AE03EDBAC14BD0471F0F601E080F180C7
:100D0000F70101900020E9F73197EE19FF0984E01F
:100D1000C80ED11CD9CF0F90DF91CF911F910F91A9
:100D2000FF90EF90DF90CF90BF90AF9008950F931A
:100D30001F93CF93DF93EC018A01DB018C919E011D
:100D4000280F311D50E0E0E0F0E02F5F3F4FD90168
:100D500011979C9190539A3078F45F5F5630A8F7C2
:100D6000DF01AA0FBB1FAA0FBB1FEA0FFB1FEE0F6D
:100D7000FF1FE90FF11DE9CF552371F0D801ED9365
:100D8000FC932C1B3D0B2150FB01208381E0DF9164
:100D9000CF911F910F91089580E0DF91CF911F9126
:100DA0000F9108950F931F93CF93DF9300D000D03E
:100DB0001F92CDB7DEB7AC01FE0131968E010A5FFE
:100DC0001F4F9A01ADECBCECF1D3969587959695A3
:100DD000879596958795BC01660F771F9C01220F1A
:100DE000331F220F331F220F331F260F371F421BC3
:100DF000530B4193AC01E017F10719F790E015E0B0
:100E00001150E1E0F0E0EC0FFD1FE10FF11D8081DA
:100E1000811108C01123B1F0992391F380E3A8DA7E
:100E200091E0EECF805DA4DA112311F091E0E8CFDC
:100E30000F900F900F900F900F90DF91CF911F9117
:100E40000F91089580E30F900F900F900F900F90E7
:100E5000DF91CF911F910F918BCAAF92BF92DF921A
:100E6000EF92FF920F931F93CF93DF9300D000D0A8
:100E70001F92CDB7DEB782EF90E010DC03E413E001
:100E8000EE24E394F12C8DE073DA8AE071DA03C08A
:100E90008B818F5F8B8361DA8035D0F389ED90E0B1
:100EA0003FDCC7017FDF8DE063DA8AE061DA03C0EF
:100EB0008C818F5F8C8351DA8035D0F380EC90E0A9
:100EC0002FDCF801818190E06DDF8CE251DA80E265
:100ED0004FDAF801828190E065DF8DE049DA8AE03F
:100EE00047DA03C08D818F5F8D8337DA8035D0F389
:100EF00087EA90E015DCF8018381948153DF580183
:100F0000F5E0AF0EB11C84E0D82E8CE231DA80E23D
:100F10002FDAF501819191915F0144DFDA94D110CC
:100F2000F4CF8DE025DA8AE023DA03C08A818F5F6F
:100F30008A8313DA8035D0F38EE890E0F1DBF80194
:100F4000858596852FDF8CE213DA80E211DAF801CD
:100F50008785908927DF8CE20BDA80E209DAF801D5
:100F6000818992891FDF8DE003DA8AE001DA03C00C
:100F700089818F5F8983F1D98035D0F385E790E04F
:100F8000CFDBF801838994890DDF8DE0F1D98AE008
:100F9000EFD90B5E1F4FFFEFEF1AFF0A83E0E81651
:100FA000F10409F070CF0F900F900F900F900F90F9
:100FB000DF91CF911F910F91FF90EF90DF90BF9045
:100FC000AF9008958DE0D4D98AE0D2D986E791E038
:100FD00065DB8BE591E062DB84E591E0A1DBE4EF8A
:100FE000F2E0119283E0E433F807D9F708950F9304
:100FF0001F93CF93DF931F92CDB7DEB7CE0101963B
:1010000092D981111AC089818830E9F08D3091F12F
:10101000E4EFF2E004C093E0E433F90719F18F0143
:10102000045F124091919111F6CFA2D9898190E08D
:10103000C9D2F801EC50FD4F80830F90DF91CF9122
:101040001F910F910895E4EFF2E080E090E005C079
:1010500001968034910509F4A1C021912111F8CFA6
:101060008111AEC087E084D90F90DF91CF911F919D
:101070000F9108958DE07CD98AE07AD98091F402AD
:1010800024EF32E08823D1F1803291F170F18C327B
:1010900079F18A3369F1F9018081811109C07BC03E
:1010A0008950823060F031968081882309F474C0C1
:1010B000803229F0A8F38C3211F08A33A1F7BF01F6
:1010C0006F5F7F4F108291819923C9F0903231F088
:1010D00008F455C09C3211F09A3389F46F5F7F4F4A
:1010E000FB0190819111F2CF0AC08950823098F6AD
:1010F0002F5F3F4FF90180818111C6CFB901F901FE
:1011000001900020E9F73197E21BF30B329730F1A1
:10111000F9019081A6E6B0E048E850E010E007C091
:101120001F5F1A3089F14D915C9111971496FA0165
:1011300080818913F5CFF9010181FA0181810813BA
:10114000EFCFE12FF0E0EE0FFF1FEE0FFF1FE05A91
:10115000FF4F0190F081E02DCB01099584E591E0EE
:10116000DFDAE4EFF2E084E393E011928E179F0759
:10117000E1F70F90DF91CF911F910F910895995052
:10118000923008F0BCCFAACF84E491E087DA80E007
:1011900090E078DDE3CFF901BF01B1CF0FE310E0BC
:1011A00088E0E6D880E2E4D88981E2D8F801EC5002
:1011B000FD4F10820F90DF91CF911F910F910895F5
:1011C0008C0101501109ECCF95E093BF982F9195B8
:1011D00092BF99B7916099BF8093400310924203E8
:1011E000109241031FBC84E08EBD82EE94EB9DBD46
:1011F0008CBD88B78B7F88BF08951F920F920FB662
:101200000F9211248F939F9380914003819582BF09
:101210008091410390914203019690934203809301
:1012200041039F918F910F900FBE0F901F901895C3
:10123000F8942091410330914203220F331FFC01A7
:1012400031832083789408950F931F93CF93DF9376
:1012500000D0CDB7DEB79A83898300E010E01CC0D0
:101260008CE490E022EE34EBFC013183208388E5AE
:1012700090E028E530E0F90120812B7FFC012083FC
:1012800088E590E0FC018081882F90E084709927A8
:10129000892BB1F30F5F1F4F89819A8108171907B6
:1012A000F8F200000F900F90DF91CF911F910F91F6
:1012B00008950F931F93CF93DF93109239031092E9
:1012C000380310923C0310923B0310923A031092A1
:1012D0003D0300E010E0C3E4D3E0C8018DD1899361
:1012E0000F5F1F4F83E0CD36D807B9F7DF91CF915D
:1012F0001F910F910895EF92FF920F931F93CF9339
:10130000DF9300D01F92CDB7DEB7CE01019690DFFC
:101310001B8220E015E102E0E02E83E0F82E16C0EB
:101320001082F901EE0FFF1FE85CFC4F1182108262
:10133000129FF001139FF00D1124ED5BFC4F108202
:101340002B812F5F2B83223008F043C030E0129FA7
:10135000F001139FF00D1124ED5BFC4F00818FEF26
:10136000800FF901E45CFC4F8330D0F6808181303E
:1013700009F4ADC008F4F5C0823009F448C08330E8
:1013800009F042C0C901880F991FDC01AC5CBC4F59
:101390006D917C9149815A814617570710F441504D
:1013A0005109461B570B5A834983129FD001139F43
:1013B000B00D1124AD5BBC4F1B962D913C911C9739
:1013C0004217530780F42B812F5F2B83223008F4C0
:1013D000BDCF0F900F900F90DF91CF911F910F9184
:1013E000FF90EF900895E0828C5C9C4F21DF6B8131
:1013F00070E0660F771F6C5C7C4F42E050E08EE936
:1014000091E0C7D82B819DCF10822B81DDCFC19871
:1014100042E050E0BE016F5F7F4F82EB91E0B9D8B0
:101420008B81189FF0011124ED5BFC4F618117D770
:1014300061E08B8132D7EB811E9FF0011124ED5BBF
:10144000FC4F8581968100DF8B8141D78B81282FCE
:1014500030E0129FF001139FF00D1124ED5BFC4F63
:10146000478150854115510509F075C0129FF00163
:10147000139FF00D1124ED5BFC4F6281F0D68B8140
:10148000189FF0011124ED5BFC4F21853285232B41
:1014900009F053C0CE010196CBDE42E050E0BE0120
:1014A0006F5F7F4F87EA91E074D8EB81F0E0DF0156
:1014B000A45CBC4FFC92EE0FFF1FE85CFC4F8081E8
:1014C0009181019691838083C19A2B813ACFC90182
:1014D000880F991FFC01EC5CFC4F60817181498190
:1014E0005A814617570710F441505109461B570BB4
:1014F0005A834983129FF001139FF00D1124ED5B75
:10150000FC4F238134814217530708F45CCFE082FB
:101510008C5C9C4F8DDE6B8170E0660F771F6C5C7E
:101520007C4F42E050E08BEB91E033D82B81E22FEF
:10153000F0E0E45CFC4FE08204CF60E0AED6EB81EB
:101540001E9FF0011124ED5BFC4F818592857CDEAE
:101550008B81BDD69FCFCA0177DE8B81282F30E0EB
:1015600085CF013009F0E4CE41E050E0BE016D5F6F
:101570007F4F84EC91E00DD82B81822F90E0FC010D
:10158000E45CFC4F0083880F991FFC01EC5CFC4F6E
:1015900089819A8191838083D4CE37D68EE114DEFF
:1015A000A8D610DD86DE23DDA6DEFDCFA29FB0012A
:1015B000B39FC001A39F01D0B29F700D811D112464
:1015C000911D08959111089581568A5108F4805211
:1015D00085580895FB01DC0102C005900D92415031
:1015E0005040D8F70895FC0105900020E9F7809558
:1015F00090958E0F9F1F0895E199FECF9FBB8EBBE4
:10160000E09A99278DB30895262FE199FECF9FBBCD
:101610008EBBE09A01970DB2021631F02DBB0FB6CA
:0E162000F894E29AE19A0FBE0895F894FFCF75
:10162E0042068800CF039100F505A200D203BE004A
:10163E002D07D6007705E800C6042E012C047C0188
:10164E00D803C1012806E8014845202048456C70A2
:10165E00005645202053686F772056457273696F88
:10166E006E00525520203C312E2E333E2052556EA8
:10167E002053746172742070756C736573004F46DD
:10168E00202053657420616C6C206F7574707574B6
:10169E0073204F4666005353202053686F772053B4
:1016AE00657474696E677300535620203C312E2E7C
:1016BE00323E2C3C302E2E35303E2C3C302E2E35EC
:1016CE00303E2053657420566F6C74616765206FD1
:1016DE006E2031206F7220322C20706F732E20619D
:1016EE006E64206E65672E2070756C7365005354A2
:1016FE0020203C312E2E323E2C3C302E2E363535CF
:10170E0033353E2C2E2E2C3C302E2E3635353335A1
:10171E003E205365742054696D696E67206F6E208C
:10172E0031206F7220323B20352074696D696E67EF
:10173E0020706172616D6574657273005344202070
:10174E003C312E2E323E2C3C302E2E363535333556
:10175E003E2C3C302E2E36353533353E2C3C302E3D
:10176E002E3235353E205365742044656C746120ED
:10177E0074696D696E67206F6E2031206F72203232
:10178E0000534320203C312E2E323E2C3C302E2E48
:10179E0036353533353E205365742072657065617C
:1017AE007420636F756E74005752202057726974DF
:1017BE00652F73746F726520616C6C207365747421
:1017CE00696E677320746F20656570726F6D0000AF
:00000001FF
