:10000000CEC0E8C0E7C0E6C0E5C0E4C0E3C0E2C0DF
:10001000E1C0C8C7DFC06DC196C1DCC0DBC0DAC0BB
:10002000D9C0D8C0D7C09F01CF00670033001900E6
:100030001000070048454C503A20466972737420FE
:1000400074776F2063686172616374657273206195
:1000500072652074686520636F6D6D616E643B200E
:10006000696D706C656D656E746564206172653A6A
:10007000004F66660050756C736520436F756E7433
:1000800073205250543A2020202020202000446524
:100090006C74612044542C2044502C20444D3A2050
:1000A0002020202020200054696D696E6773205441
:1000B000302C54312C54322C54332C54343A2000EC
:1000C000566F6C746167652056312C2056323A2089
:1000D00020202020202020200053657474696E6742
:1000E00073206368616E6E656C3A202020202020AA
:1000F000200053657474696E67733A0050617261D1
:100100006D65746572206D697373696E67206572C1
:10011000726F7200506172616D65746572206F75E7
:1001200074206F6620626F756E6473206572726FE3
:10013000720057726974696E6720746F206565700C
:10014000726F6D00556E6B6E6F776E20636F6D6DA5
:10015000616E64005445524D3E20005374696D75C4
:100160006C61746F722056657273696F6E20322EE7
:1001700030302E303000436F6D6D616E64205465F9
:10018000726D696E616C206D6F6E69746F7220663E
:100190006F72207374696D756C61746F72001124D5
:1001A0001FBECFE5D4E0DEBFCDBF12E0A0E6B0E0D9
:1001B000E0EDF1E102C005900D92A433B107D9F74B
:1001C00023E0A4E3B2E001C01D92AA36B207E1F732
:1001D00027D0FCC715CFF8940FB6F894A89581B531
:1001E000886181BD11BC0FBE8EE287BB8FEF88BBDB
:1001F00080E58DB91EB880EC8FB9779BFECFC29891
:1002000082E08FB9779BFECF8FE08FB9779BFECFCF
:1002100084E88FB9779BFECFC29A16D07894089560
:10022000DADF87E1B0D6C7D5E4D6CED505D7FDCF86
:10023000E82FF0E0EE0FFF1FEC5DFF4F85919491EA
:100240009F7090BD89B9089582E08BB988E98AB919
:1002500086E880BD1092B7021092B6021092350265
:100260001092340283E0E4DF10926503109266037B
:100270000895DC019091B6022091B702291789F008
:10028000E92FF0E0E854FD4F80818C939F5F90361A
:1002900021F09093B60280E008951092B60280E0BB
:1002A000089581E008959091350280913402981765
:1002B00018F08058891B0895891B0895E091350234
:1002C00091E09E0F0AF490E020913402921759F0C9
:1002D000F0E0EA5CFD4F8083F8949093350288EB60
:1002E0008AB978940895809165038F5F8093650340
:1002F00008951F920F920FB60F9211248F939F9320
:10030000EF93FF93E091B70281E08E0F803608F003
:1003100080E09091B602891741F09CB1F0E0E8547A
:10032000FD4F90838093B70205C0809166038F5F75
:1003300080936603FF91EF919F918F910F900FBE75
:100340000F901F9018951F920F920FB60F921124C5
:100350008F939F93EF93FF93E09134028091350246
:100360008E17A1F0F0E0EA5CFD4F80818CB980919E
:1003700034028F5F1AF08093340202C0109234026C
:100380009091340280913502981302C088E98AB9AD
:10039000FF91EF919F918F910F900FBE0F901F9043
:1003A0001895982F80E3890F8A3310F087E3890F1F
:1003B00008950F931F93CF93DF93662369F0EC01A9
:1003C0006150062F10E00F5F1F4F080F191F899112
:1003D00075DFC017D107D9F7DF91CF911F910F912A
:1003E0000895CF92DF92EF92FF92CF93DF936B014C
:1003F0007C01EA01DC01CB01072E74E1B695A795DB
:10040000979587957A95D1F7702D8F70CADF88837D
:10041000C701B601662777278F709927C2DF8983C6
:10042000D701C601072E7CE0B695A79597958795CD
:100430007A95D1F7702D8F70B4DF8A83D701C6010A
:1004400088279F70AA27BB27892FABDF8B83D70113
:10045000C601807F9927AA27BB27689413F8B69511
:10046000A795979587951694D1F79BDF8C838C2D54
:100470008F7097DF8D838DE08E83DF91CF91FF901A
:10048000EF90DF90CF9008951F93CF93DF93182FB5
:10049000EB0182958F7085DF8883812F8F7081DFDC
:1004A00089838DE08A83DF91CF911F9108956F92A8
:1004B0007F928F929F92AF92BF92CF92DF92EF92F4
:1004C000FF920F931F93CF93DF93CDB7DEB7C05446
:1004D000D1090FB6F894DEBF0FBECDBF8C014B0122
:1004E0005A0152D66C0186E3C816D10408F04DC0FB
:1004F000A601B801CE0101963ED6E1E0F0E0EC0F96
:10050000FD1FEC0DFD1D8AE38083EFEFCE1ADE0A9E
:10051000A114B10461F101E010E00C0F1D1F0C0DDE
:100520001D1DE12CF12C6894662465F8F8016082A9
:10053000F401EE0DFF1D7080872D82958F7031DFE5
:10054000F8018183872D8F702CDFF8018283F3E01F
:10055000CF0ED11C8CE3C816D10408F07501EFEF63
:10056000EE1AFE0A0D5F1F4FEA14FB04F8F2E1E0F9
:10057000F0E0EC0FFD1FEC0DFD1D8DE08083B6015A
:100580006F5F7F4FCE01019614DFC05CDF4F0FB667
:10059000F894DEBF0FBECDBFDF91CF911F910F91B9
:1005A000FF90EF90DF90CF90BF90AF909F908F9093
:1005B0007F906F900895EF92FF920F931F93CF93C8
:1005C000DF93CDB7DEB7C054D1090FB6F894DEBFC4
:1005D0000FBECDBF7C01D8D58C01CF9710F00EE3B4
:1005E00010E0A801B701CE010196C5D5E1E0F0E029
:1005F000EC0FFD1FE00FF11F8DE08083FE01E00F87
:10060000F11F8AE08283B8016E5F7F4FCE010196B1
:10061000D0DEC05CDF4F0FB6F894DEBF0FBECDBF9B
:10062000DF91CF911F910F91FF90EF900895EF927E
:10063000FF920F931F93CF93DF93CDB7DEB7C054D4
:10064000D1090FB6F894DEBF0FBECDBF7C019CD59B
:100650008C018134910510F000E410E0A801B7018D
:10066000CE01019688D5602FCE010196A2DEC05C36
:10067000DF4F0FB6F894DEBF0FBECDBFDF91CF9135
:100680001F910F91FF90EF9008958B3028F48930DF
:1006900058F4811107C008C08C3231F08A3321F040
:1006A000803211F080E0089581E008958DE006DE4B
:1006B0008AE004DE08958CE201DE80E2FFDD089529
:1006C0008BE591E078DF089581E790E074DFEDE558
:1006D000F3E010821182089584E591E0A8DFE9E15A
:1006E000F3E089E593E01192E817F907E1F708953F
:1006F000EF92FF920F931F93CF93DF9382E391E0EA
:100700005ADF0DE513E0C0E0D0E00F2EFAE2EF2E45
:10071000F0E0FF2EF02DF80161918F01CE0145D55B
:100720002196CE15DF05B9F7DF91CF911F910F917B
:10073000FF90EF90089508C09AEF809118038F5FA3
:10074000809318039150C9F7AEDD8035A8F3089562
:10075000BF92CF92DF92EF92FF920F931F93CF93AE
:10076000DF9384E390E027DFA1DF0F2EF6E8EF2E82
:10077000F0E0FF2EF02D0F2EFEEACF2EF0E0DF2E60
:10078000F02DF701C081D181FE0101900020E9F731
:100790003197BE2EBC1ACFDFBB2049F08E01C0E0DE
:1007A000F80181918F018ADDCF5FBC12F9CF7EDF26
:1007B000F4E0EF0EF11CEC14FD0419F7DF91CF917A
:1007C0001F910F91FF90EF90DF90CF90BF90089511
:1007D0000F931F93CF93DF93EC018A01DB018C9180
:1007E0009E01280F311D50E0E0E0F0E02F5F3F4F09
:1007F000D90111979C9190539A3078F45F5F5630ED
:10080000A8F7DF01AA0FBB1FAA0FBB1FEA0FFB1F30
:10081000EE0FFF1FE90FF11DE9CF552351F0D8016D
:10082000ED93FC932C1B3D0B2150FB01208381E0B9
:1008300001C080E0DF91CF911F910F9108950F9338
:100840001F93CF93DF9300D000D01F92CDB7DEB7B8
:100850008C011D82AE014F5F5F4FBE016B5F7F4F0A
:10086000B7DF811104C08CEF90E0A5DE25C089813F
:100870009A810197029720F084E191E09CDE1CC0F0
:100880008D818F5F8D83AE014D5F5F4FBE016B5FCA
:100890007F4FC8019DDF811104C08CEF90E08BDE9B
:1008A0000BC004DFE981FA81EE0FFF1FE95AFC4F0C
:1008B0008B819C81918380830F900F900F900F907C
:1008C0000F90DF91CF911F910F910895CF92DF92FA
:1008D000EF92FF920F931F93CF93DF93CDB7DEB7C5
:1008E00029970FB6F894DEBF0FBECDBF7C011986E5
:1008F000AE014F5F5F4FBE01675F7F4F69DF8111C0
:1009000004C08CEF90E057DE4CC089819A8101973A
:10091000029720F084E191E04EDE43C089858F5F2D
:1009200089878E010D5F1F4F6E0189E0C80ED11CB3
:10093000A801BE01675F7F4FC7014ADF811104C074
:100940008CEF90E038DE2DC089858F5F89870E5F40
:100950001F4F0C151D0561F7A9DE2F8138852B303F
:10096000310520F084E191E026DE1BC089819A8167
:100970000197FC01EE0FFF1FDF01A80FB91FAA0F9F
:10098000BB1FA05ABF4F4B815C8111965C934E9365
:100990004D815E8113965C934E931297FD013583D2
:1009A000248329960FB6F894DEBF0FBECDBFDF912A
:1009B000CF911F910F91FF90EF90DF90CF9008950E
:1009C000AF92BF92CF92DF92EF92FF920F931F935D
:1009D000CF93DF93CDB7DEB72D970FB6F894DEBF78
:1009E0000FBECDBF5C011D86AE014F5F5F4FBE01E4
:1009F000635F7F4FEDDE811104C08CEF90E0DBDDA3
:100A000043C089819A810197029720F084E191E0A7
:100A1000D2DD3AC08D858F5F8D877E0183E0E80E41
:100A2000F11C6E01ADE0CA0ED11C8701A801BE0108
:100A3000635F7F4FC501CCDE811104C08CEF90E075
:100A4000BADD22C08D858F5F8D870E5F1F4FC01668
:100A5000D10661F72BDE89819A810197FC01EE0FA7
:100A6000FF1F880F991F880F991F880F991FE80F84
:100A7000F91FE459FF4FD7018D919D917D0181931D
:100A80009193CA16DB06B9F72D960FB6F894DEBF20
:100A90000FBECDBFDF91CF911F910F91FF90EF90CF
:100AA000DF90CF90BF90AF9008950F931F93CF9397
:100AB000DF93CDB7DEB727970FB6F894DEBF0FBE32
:100AC000CDBF8C011F82AE014F5F5F4FBE01695FDA
:100AD0007F4F7EDE811104C08CEF90E06CDD3EC064
:100AE00089819A810197029720F084E191E063DD8A
:100AF00035C08F818F5F8F83AE014D5F5F4FBE0129
:100B0000695F7F4FC80164DE882369F08F818F5F42
:100B10008F83AE014B5F5F4FBE01695F7F4FC8019E
:100B200057DE811104C08CEF90E045DD17C0BEDDBB
:100B30008B819C818333910528F42D813E81233361
:100B4000310520F084E191E036DD08C0E981FA81C9
:100B5000EE0FFF1FE258FF4F8083218327960FB6C9
:100B6000F894DEBF0FBECDBFDF91CF911F910F91E3
:100B70000895CF93DF9300D01F92CDB7DEB71B82CD
:100B8000AE014F5F5F4FBE016D5F7F4F21DE811170
:100B900004C08CEF90E00FDD21C089819A819C0117
:100BA000215031092330310520F084E191E003DD4B
:100BB00015C08230910549F08330910551F00197BD
:100BC00069F481E080935D0309C081E080935E0356
:100BD00005C0EDE5F3E081E0808381830F900F9005
:100BE0000F90DF91CF910895FF920F931F93CF93B2
:100BF000DF9300D000D01F92CDB7DEB7AC01FE016D
:100C000031968E010A5F1F4F9A01ADECBCEC9FD26A
:100C10009695879596958795969587959C01220F31
:100C2000331F880F991F880F991F880F991F820FF4
:100C3000931F9A01281B390B21939A0188D2AC018A
:100C40005695479556954795569547950E171F0704
:100C5000D9F600E015E0FF24F3941150E1E0F0E054
:100C6000EC0FFD1FE10FF11D8081811105C01123E3
:100C700029F0002391F303C00F2D01C00F2D805DDB
:100C80001DDB1111EACF0F900F900F900F900F9076
:100C9000DF91CF911F910F91FF9008956F927F92F6
:100CA0008F929F92AF92BF92CF92DF92EF92FF927C
:100CB0001F93CF93DF9382EF90E07DDC0F2EF0E85F
:100CC000EF2EF0E0FF2EF02D0F2EF0E66F2EF0E06D
:100CD0007F2EF02D0F2EF9E58F2EF3E09F2EF02DB5
:100CE0000F2EFCE6AF2EF0E0BF2EF02DCC24C394E7
:100CF000D12CDCDC20DD89ED90E099DCC60174DFCD
:100D0000D5DC19DD80EC90E092DCF701808190E089
:100D10006BDFD1DCF701818190E066DFC7DC0BDDA2
:100D200087EA90E084DCE50110E0899199915CDF2D
:100D3000143008F4C0DC1F5F1530B9F7B7DCFBDCFA
:100D40008EE890E074DCF301808191814DDFB3DCAB
:100D5000F3018281938148DFAEDCF30184819581C8
:100D600043DFA4DCE8DC85E790E061DCF4018191FD
:100D700091914F0139DF9ADCFFEFCF1ADF0A82E051
:100D8000E80EF11CE6E06E0E711CFAE0AF0EB11C2D
:100D900083E0C816D10409F0ACCFDF91CF911F9149
:100DA000FF90EF90DF90CF90BF90AF909F908F908B
:100DB0007F906F9008957ADC86E791E0FCDB8BE50D
:100DC00091E0F9DB89DC0895CF92DF92EF92FF92F8
:100DD0000F931F93CF93DF931F92CDB7DEB7CE0152
:100DE000019647DA8111C5C08981883019F08D30AC
:100DF00041F108C080911903882301F1EAE1F3E091
:100E000011E00BC090911903992391F1EAE1F3E00D
:100E100011E026C01F5F103429F081918111FACFB3
:100E2000112361F088E04ADA80E248DA898146DA03
:100E3000E12FF0E0E85EFC4F10829BC087E03EDAD5
:100E400098C034DC80911903811125C00F2EF9E17F
:100E5000EF2EF3E0FF2EF02D7AC01F5F103429F043
:100E600091919111FACF103421F487E027DA81C0F3
:100E700010E024DA898190E076D1E12FF0E0E75E9E
:100E8000FC4F808376C08FEFE81AF80AD7018C9167
:100E9000811107C05CC00F2EF9E1EF2EF3E0FF2EA9
:100EA000F02DF3DB8111EFCFF701D080D11009C015
:100EB00087014FC00F5F1F4FD801DC90D11002C0D7
:100EC0000BC087018D2DE1DB8823A1F3DD2021F00C
:100ED000F80110820F5F1F4FD8018C91811107C05C
:100EE00038C00F5F1F4FF8018081882391F1CDDB5F
:100EF0008111F7CF2EC0D7013C91E6E8F0E080E009
:100F000090E0C080D180D6012C9132132CC0D70143
:100F100011966C91D60111962C91621324C08A30DF
:100F2000910568F4880F991F880F991FFC01EC57F1
:100F3000FF4F0190F081E02DC801099506C084E4BF
:100F400091E039DB80E090E003DCC6DB12C0870172
:100F5000C3CFF70101900020E9F73197EE19FF099F
:100F6000329748F6F2CF019634968A30910549F6C9
:100F7000E6CF0F90DF91CF911F910F91FF90EF90EF
:100F8000DF90CF90089595E093BF982F919592BFF1
:100F900099B7916099BF809367031092690310928B
:100FA000680308951F920F920FB60F9211248F932A
:100FB0009F9380916703819582BF80916803909190
:100FC0006903019690936903809368039F918F91C1
:100FD0000F900FBE0F901F901895F8942091680302
:100FE00030916903220F331FFC01318320837894F1
:100FF00008950F931F93CF93DF93AFE5B3E011965E
:101000001C921E92E3E6F3E0108213961C921E924D
:101010001297118200E010E0CDE5D3E0C801BDD009
:1010200089930F5F1F4F83E0C738D807B9F7DF9167
:10103000CF911F910F910895CF93DF9300D0CDB73B
:10104000DEB780915D03811102C01092630380912D
:101050005E03811102C010926403809165038130A8
:10106000B9F030F08230C9F1833009F446C068C06D
:10107000109264031092630380915F03882309F444
:1010800061C081E08093650383E693E0A6DF5AC0E8
:10109000CE010196A2DF2091630330916403898120
:1010A0009A812817390728F4821B930B9A83898326
:1010B00005C00197821B930B9A838983209180003E
:1010C0003091810089819A8182179307D8F182E05B
:1010D0008093650380935F0335C0C198E9E5F3E031
:1010E0008481958101969583848383E693E075DFFF
:1010F00083E080936503C19A25C0CE0101966DDF20
:10110000209163033091640389819A8128173907FC
:1011100028F4821B930B9A83898305C00197821B55
:10112000930B9A838983209188003091890089816B
:101130009A818217930730F082E08093650302C0A2
:10114000109265030F900F90DF91CF910895A29FA9
:10115000B001B39FC001A39F01D0B29F700D811D4C
:101160001124911D08959111089581568A5108F412
:10117000805285580895FB01DC0102C005900D9254
:1011800041505040D8F70895FC0105900020E9F740
:10119000809590958E0F9F1F0895E199FECF9FBB7C
:1011A0008EBBE09A99278DB30895262FE199FECF43
:1011B0009FBB8EBBE09A01970DB2021631F02DBB9A
:1011C0000FB6F894E29AE19A0FBE0895F894FFCF13
:1011D000640050C30400000050C3040050C3640006
:1011E0000A00C800102750C364000A00C800E02E9F
:1011F000190A190AA803AC006003B500B905C600B6
:101200006403E2004E06FA0055050C01E0045201A9
:101210006604A0011F04E50178030C024845202064
:1012200048456C70005645202053686F772056451E
:101230007273696F6E00525520203C312E2E333E62
:101240002052556E2053746172742070756C7365F2
:1012500073004F46202053657420616C6C206F75BD
:101260007470757473204F46660053532020536882
:101270006F772053657474696E677300535620202E
:101280003C312E2E323E2C3C302E2E35303E2C3C26
:10129000302E2E35303E2053657420566F6C7461AD
:1012A0006765206F6E2031206F7220322C20706FA6
:1012B000732E20616E64206E65672E2070756C73CE
:1012C0006500535420203C312E2E323E2C3C302ED3
:1012D0002E36353533353E2C2E2E2C3C302E2E36E8
:1012E000353533353E205365742054696D696E671A
:1012F000206F6E2031206F7220323B2035207469C0
:101300006D696E6720706172616D657465727300DE
:10131000534420203C312E2E323E2C3C302E2E3693
:10132000353533353E2C3C302E2E36353533353E73
:101330002C3C302E2E3235353E20536574204465CA
:101340006C74612074696D696E67206F6E20312046
:101350006F72203200534320203C312E2E323E2C1F
:101360003C302E2E36353533353E20536574207291
:10137000657065617420636F756E7400575220202C
:1013800057726974652F73746F726520616C6C207D
:1013900073657474696E677320746F20656570720D
:0413A0006F6D00006D
:00000001FF
