:100000000C9407010C9424010C9424010C942401F9
:100010000C9424010C9424010C9424010C942401CC
:100020000C9424010C9424010C9424010C942401BC
:100030000C9424010C9424010C9424010C942401AC
:100040000C94C5090C9424010C940E020C943902F2
:100050000C9424010C9424010C9424010C9424018C
:100060000C9424010C94240140039F01CF006700ED
:1000700033002100100048454C503A204669727305
:10008000742074776F206368617261637465727342
:10009000206172652074686520636F6D6D616E64A8
:1000A0003B20696D706C656D656E7465642061726E
:1000B000653A004F66660050756C736520436F7536
:1000C0006E7473205250543A2020202020202000AB
:1000D00044656C74612044542C2044502C20444DC1
:1000E0003A202020202020200054696D696E67731B
:1000F0002054302C54312C54322C54332C54343A58
:100100002000566F6C746167652056312C20563282
:100110003A2020202020202020200053657474697C
:100120006E6773206368616E6E656C3A20202020D4
:100130002020200053657474696E67733A00506123
:1001400072616D65746572206D697373696E672085
:100150006572726F7200506172616D6574657220B4
:100160006F7574206F6620626F756E6473206572A0
:10017000726F720057726974696E6720746F2065C0
:100180006570726F6D00556E6B6E6F776E20636F6A
:100190006D6D616E64005445524D3E20005374698C
:1001A0006D756C61746F722056657273696F6E2025
:1001B000322E30302E303000436F6D6D616E642012
:1001C0005465726D696E616C206D6F6E69746F72CB
:1001D00020666F72207374696D756C61746F720044
:1001E0000D0A74696D653320000D0A4E6F50756CF1
:1001F000736520000D0A50756C736520000D0A743C
:10020000696D65312000535441525420000011247F
:100210001FBECFEFD8E0DEBFCDBF12E0A0E0B1E05F
:10022000E8EEF7E102C005900D92A63BB107D9F7C1
:1002300024E0A6EBB2E001C01D92A231B207E1F7C3
:100240000E94A00B0C94F20B0C9400005A98299871
:100250000895F8940FB6F894A8958091600088618D
:1002600080936000109260000FBE8CEF8AB91BB8BB
:100270008EE284B98FEF85B980E58CBD1DBC80EC22
:100280008EBD0DB407FEFDCF2A9882E08EBD0DB461
:1002900007FEFDCF8FE08EBD0DB407FEFDCF84E8D5
:1002A0008EBD0DB407FEFDCF2A9A78940E942601D8
:1002B0005E985C9808958D7F81F0862F880F880F57
:1002C000680F2A9882E18EBD0DB407FEFDCF6EBD8A
:1002D0000DB407FEFDCF2A9A0895862F880F880F48
:1002E000680F2A9881E18EBD0DB407FEFDCF6EBD6B
:1002F0000DB407FEFDCF2A9A0895813039F461309C
:1003000061F05B9A289A5A9A299A0895613051F0BF
:100310005F9A5D9A5E9A5C9A08955B9828985A9ABB
:10032000299A08955F985D985E9A5C9A089588234B
:1003300019F05E985C9808950C942601E82FF0E07F
:10034000EE0FFF1FEA59FF4F859194919F70909394
:10035000C5008093C400089582E08093C00088E9BE
:100360008093C10086E08093C200109239031092FE
:1003700038031092B7021092B602EEE6F0E08591D3
:1003800094919F709093C5008093C4001092E403F1
:100390001092E5030895DC01909138032091390310
:1003A000291789F0E92FF0E0E65CFC4F80818C93FF
:1003B0009F5F903621F09093380380E0089510926B
:1003C000380380E0089581E008959091B70280910C
:1003D000B602981710F4891B08958058891B089558
:1003E000E091B70291E09E0F97FD16C02091B602F2
:1003F000921761F0F0E0E854FD4F8083F8949093F9
:10040000B70288EB8093C100789408958091E4034B
:100410008F5F8093E403089590E0E8CF1F920F92DE
:100420000FB60F9211248F939F93EF93FF93E09158
:10043000390381E08E0F803608F080E09091380318
:10044000891789F09091C600F0E0E65CFC4F90833C
:1004500080933903FF91EF919F918F910F900FBE81
:100460000F901F9018958091E5038F5F8093E503AF
:10047000F1CF1F920F920FB60F9211248F939F937B
:10048000EF93FF93E091B6028091B7028E17D1F0FF
:10049000F0E0E854FD4F80818093C6008091B60261
:1004A0008F5F87FD13C08093B6029091B7029817B3
:1004B00049F0FF91EF919F918F910F900FBE0F9098
:1004C0001F90189588E98093C100F3CF1092B6026F
:1004D00080E0EBCF0F931F93CF93DF93662371F0F0
:1004E000EC016150062F10E00F5F1F4F080F191F1E
:1004F00089910E94F001C017D107D1F7DF91CF9108
:100500001F910F9108950F931F93FA018B019C0186
:1005100000271127207F3327B4E1369527951795BB
:100520000795BA95D1F740E3400F4A3310F047E3FF
:10053000400F40838B019C01002711272F70332728
:1005400089012227332740E3400F4A3310F047E365
:10055000400F41838B019C010027107F2227332706
:100560005CE036952795179507955A95D1F740E3A6
:10057000400F4A3310F047E3400F42838B019C0148
:1005800000271F7022273327012F122F232F3327F5
:1005900040E3400F4A3310F047E3400F43838B01A1
:1005A0009C01007F11272227332784E03695279569
:1005B000179507958A95D1F740E3400F4A3310F01D
:1005C00047E3400F44836F7080E3860F8A3310F057
:1005D00087E3860F85838DE086831F910F910895B1
:1005E000FB01282F22952F7090E3920F9A3310F081
:1005F00097E3920F90838F7090E3980F9A3310F0E7
:1006000097E3980F91838DE082830895AF92BF9214
:10061000CF92DF92EF92FF920F931F93CF93DF93CE
:10062000CDB7DEB7C054D1090FB6F894DEBF0FBE08
:10063000CDBF5C017B018A010E94CF0B6C0186E378
:10064000C816D10490F0C05CDF4F0FB6F894DEBF3F
:100650000FBECDBFDF91CF911F910F91FF90EF9013
:10066000DF90CF90BF90AF900895A601B501CE0165
:1006700001960E94C60BE1E0F0E0EC0FFD1FEC0DCF
:10068000FD1D8AE38083A6014F5F5F4F01151105B1
:1006900061F1E1E0F0E0EC0FFD1FE40FF51F20E059
:1006A00030E070E27083D701A20FB31F9C91692FD5
:1006B00062956F7080E3860F8A3310F087E3860FB0
:1006C00081839F7080E3890F8A3310F087E3890F5D
:1006D00082834D5F5F4F4C33510508F098012F5FC7
:1006E0003F4F339620173107E8F2E1E0F0E0EC0FDE
:1006F000FD1FE40FF51F8DE0808311E0140F09F456
:10070000A2CFFE0131967F0100E0F70181917F01C8
:100710000E94F0010F5F0117C0F395CFEF92FF9297
:100720000F931F93CF93DF93CDB7DEB7C054D1099A
:100730000FB6F894DEBF0FBECDBF7C010E94CF0B79
:100740008C01CF9710F00EE310E0A801B701CE01A5
:1007500001960E94C60BE1E0F0E0EC0FFD1FE00FF8
:10076000F11F8DE08083FE01E00FF11F8AE082839C
:100770000E5FCE0101967C0110E0F70181917F01AF
:100780000E94F0011F5F1017C0F3C05CDF4F0FB66F
:10079000F894DEBF0FBECDBFDF91CF911F910F91B7
:1007A000FF90EF900895EF92FF920F931F93CF93D6
:1007B000DF93CDB7DEB7C054D1090FB6F894DEBFD2
:1007C0000FBECDBF8C010E94CF0B7C0181E4E816E7
:1007D000F10418F080E4E82EF12CA701B801CE0155
:1007E00001960E94C60BEE2091F08E010F5F1F4F05
:1007F000EA94F12CEFEFEE1AFE0AE00EF11EF8017A
:1008000081918F010E94F0010E151F05C1F7C05C98
:10081000DF4F0FB6F894DEBF0FBECDBFDF91CF9193
:100820001F910F91FF90EF9008958DE991E00C9446
:100830008E03DC01AC0160E020E030E04F5F5F4FF1
:10084000FA013197908190539A3078F46F5F663057
:10085000A8F7F901EE0FFF1FEE0FFF1F2E0F3F1F2E
:10086000220F331F290F311DE9CF662381F14A1B67
:100870005B0B215031092230310568F5FD01E40F91
:10088000F11D60E040E050E0919190539A3090F477
:100890006F5F6630C8F7DA01AA0FBB1FAA0FBB1F34
:1008A0004A0F5B1F440F551F490F511D91919053E3
:1008B0009A3070F3662359F085E1829FF001839F9F
:1008C000F00D1124E851FC4F548B438B08958EE3B7
:1008D00091E00C948E0386E591E00C948E03CF9208
:1008E000DF92EF92FF920F931F93CF93DF9300D08D
:1008F00000D000D0CDB7DEB7BC019C0180E040E065
:1009000050E02F5F3F4FF9013197908190539A301B
:1009100078F48F5F8630A8F7FA01EE0FFF1FEE0F15
:10092000FF1F4E0F5F1F440F551F490F511DE9CF89
:10093000811112C08EE391E026960FB6F894DEBFC7
:100940000FBECDBFDF91CF911F910F91FF90EF9020
:10095000DF90CF900C948E034150510942305105E5
:1009600018F086E591E0E8CF261BCE0101966C01D8
:100970008E01095F1F4FDB01A20FB11D9D0180E0B9
:10098000E0E0F0E02F5F3F4FD90111979C91905329
:100990009A3078F48F5F8630A8F77F01EE0CFF1C49
:1009A000EE0CFF1CEE0DFF1DEE0FFF1FE90FF11DFA
:1009B000E9CF882309F4BECFD601ED93FD936D01F5
:1009C000261BA017B107B9F68D819E818B3091054A
:1009D00040F625E1249FF001259FF00D1124E851F8
:1009E000FC4F29813A81368725872B813C81308BCA
:1009F0002787928B818B26960FB6F894DEBF0FBEA9
:100A0000CDBFDF91CF911F910F91FF90EF90DF90BD
:100A1000CF9008956F927F928F929F92AF92BF92E4
:100A2000CF92DF92EF92FF920F931F93CF93DF93BA
:100A3000CDB7DEB72A970FB6F894DEBF0FBECDBF95
:100A40003C019C0180E0E0E0F0E02F5F3F4FA90116
:100A500041505109DA019C9190539A3078F48F5F9C
:100A6000863098F7AF01440F551F440F551FE40F10
:100A7000F51FEE0FFF1FE90FF11DE7CF811118C021
:100A80008EE391E02A960FB6F894DEBF0FBECDBF7D
:100A9000DF91CF911F910F91FF90EF90DF90CF905A
:100AA000BF90AF909F908F907F906F900C948E032B
:100AB0004F01B1E08B1A9108E2E08E16910418F014
:100AC00086E591E0DFCF26198E010F5F1F4F6E0183
:100AD000FBE0CF0ED11C7801C301820F911D9C0158
:100AE00040E060E070E02F5F3F4FF9013197908167
:100AF00090539A3078F44F5F4630A8F75B01AA0C08
:100B0000BB1CAA0CBB1C6A0D7B1D660F771F690FEF
:100B1000711DE9CF442309F4B3CFD7016D937D93C1
:100B20007D012619AC15BD05B9F625E1289DC0014A
:100B3000299D900D1124FC01E551FC4FD8018D91A8
:100B40009D918D0181939193AC15BD05B9F72A96BE
:100B50000FB6F894DEBF0FBECDBFDF91CF911F91CE
:100B60000F91FF90EF90DF90CF90BF90AF909F904C
:100B70008F907F906F900895DC01AC0160E020E0E1
:100B800030E04F5F5F4FFA013197908190539A3078
:100B900078F46F5F6630A8F7F901EE0FFF1FEE0FD4
:100BA000FF1F2E0F3F1F220F331F290F311DE9CFCB
:100BB000662369F04A1B5B0B215031092230310555
:100BC00050F086E591E00C948E03911122C08EE3E3
:100BD00091E00C948E03CD01840F911DAC0190E047
:100BE00060E070E04F5F5F4FFA0131978081805382
:100BF0008A3058F79F5F9630A8F7FB01EE0FFF1F72
:100C0000EE0FFF1F6E0F7F1F660F771F680F711D9E
:100C1000E9CF4A1B5B0BA40FB11D80E040E050E020
:100C20009D9190539A3090F48F5F8630C8F7FA0107
:100C3000EE0FFF1FEE0FFF1F4E0F5F1F440F551FDC
:100C4000490F511D9D9190539A3070F3882309F4F8
:100C5000BECF6333710508F0B4CF4333510508F0BC
:100C6000B0CF85E1829FF001839FF00D1124E85100
:100C7000FC4F618342830895FC0140E020E030E0B6
:100C8000919190539A3090F44F5F4630C8F7B90174
:100C9000660F771F660F771F260F371F220F331F30
:100CA000290F311D919190539A3070F3411104C076
:100CB0008EE391E00C948E03C9010197039768F4C9
:100CC00081E02230310531F08093E8032330310593
:100CD00009F008958093FD03089586E591E00C9452
:100CE0008E030F931F93CF93DF9384E791E00E94CD
:100CF0008E0308EE13E0C0E0D0E0F80161918F01AF
:100D0000CE010E94E00B2196F0E0CA32DF07A9F77E
:100D1000DF91CF911F910F910895AF92BF92CF9223
:100D2000DF92EF92FF920F931F93CF93DF931F9267
:100D3000CDB7DEB786E790E00E948E038DE00E947B
:100D4000F0018AE00E94F00186E0C82E81E0D82EF2
:100D50009AE2A92E91E0B92EE8E0F0E028E2E22E36
:100D600021E0F22E0E2F03C089818F5F89830E94BC
:100D7000E5018035C8F3002349F010E0F7018191C7
:100D80007F010E94F0011F5F0113F8CF8DE00E94E8
:100D9000F0018AE00E94F001AC14BD0471F0F6018C
:100DA000E080F180F70101900020E9F73197EE191A
:100DB000FF0984E0C80ED11CD5CF0F90DF91CF91F1
:100DC0001F910F91FF90EF90DF90CF90BF90AF9069
:100DD0000895FC0140E020E030E0919190539A307A
:100DE00090F44F5F4630C8F7B901660F771F660F62
:100DF000771F260F371F220F331F290F311D9191A7
:100E000090539A3070F3411109C083EB90E00E9437
:100E10008E031092E8031092FD030895C901019713
:100E2000039750F42130310521F02230310599F338
:100E300008951092E803089586E591E00C948E03DE
:100E40000F931F93CF93DF93EC018A01DB018C9109
:100E50009E01280F311D50E0E0E0F0E02F5F3F4F92
:100E6000D90111979C9190539A3078F45F5F563076
:100E7000A8F7DF01AA0FBB1FAA0FBB1FEA0FFB1FBA
:100E8000EE0FFF1FE90FF11DE9CF552371F0D801D7
:100E9000ED93FC932C1B3D0B2150FB01208381E043
:100EA000DF91CF911F910F91089580E0DF91CF9155
:100EB0001F910F9108950F931F93CF93DF9300D04D
:100EC00000D01F92CDB7DEB7AC01FE0131968E0186
:100ED0000A5F1F4F9A01ADECBCEC0E94AF0B9695D8
:100EE00087959695879596958795BC01660F771F90
:100EF0009C01220F331F220F331F220F331F260F97
:100F0000371F421B530B4193AC01E017F10711F758
:100F100090E015E01150E1E0F0E0EC0FFD1FE10F73
:100F2000F11D8081811109C01123C1F0992391F332
:100F300080E30E94F00191E0EDCF805D0E94F0011E
:100F4000112311F091E0E6CF0F900F900F900F90CA
:100F50000F90DF91CF911F910F91089580E30F9033
:100F60000F900F900F900F90DF91CF911F910F91E5
:100F70000C94F001AF92BF92DF92EF92FF920F9329
:100F80001F93CF93DF9300D000D01F92CDB7DEB771
:100F900084E391E00E948E0308EE13E0EE24E394D4
:100FA000F12C8DE00E94F0018AE00E94F00103C064
:100FB0008B818F5F8B830E94E5018035C8F38BE1C5
:100FC00091E00E94D303C7010E945B078DE00E945D
:100FD000F0018AE00E94F00103C08C818F5F8C8356
:100FE0000E94E5018035C8F382E091E00E94D303BE
:100FF000F801818190E00E945B078CE20E94F00181
:1010000080E20E94F001F801828190E00E945B077B
:101010008DE00E94F0018AE00E94F00103C08D8102
:101020008F5F8D830E94E5018035C8F389EE90E0E3
:101030000E94D303F801838194810E945B075801C9
:10104000F5E0AF0EB11C84E0D82E8CE20E94F001D6
:1010500080E20E94F001F501819191915F010E946F
:101060005B07DA94D110F1CF8DE00E94F0018AE0A5
:101070000E94F00103C08A818F5F8A830E94E5018C
:101080008035C8F380ED90E00E94D303F801858598
:1010900096850E945B078CE20E94F00180E20E942C
:1010A000F001F801878590890E945B078CE20E941D
:1010B000F00180E20E94F001F801818992890E948A
:1010C0005B078DE00E94F0018AE00E94F00103C0FE
:1010D00089818F5F89830E94E5018035C8F387EBA2
:1010E00090E00E94D303F801838994890E945B07F2
:1010F0008DE00E94F0018AE00E94F0010B5E1F4F1C
:10110000FFEFEF1AFF0A83E0E816F10409F049CF78
:101110000F900F900F900F900F90DF91CF911F9134
:101120000F91FF90EF90DF90BF90AF9008958DE00A
:101130000E94F0018AE00E94F00188EB91E00E9499
:101140008E038DE991E00E948E0386E991E00E9472
:10115000D303EAE9F3E0119283E0EA3DF807D9F717
:1011600008950F931F93CF93DF931F92CDB7DEB7F0
:10117000CE0101960E94CB0181111CC0898188306B
:10118000F9F08D30A9F1EAE9F3E004C093E0EA3D1B
:10119000F90729F18F010A59134091919111F6CF66
:1011A0000E94F001898190E00E94BE0BF801E65692
:1011B000FC4F80830F90DF91CF911F910F91089585
:1011C000EAE9F3E080E090E005C001968034910503
:1011D00009F4A7C021912111F8CF8111B7C087E090
:1011E0000E94F0010F90DF91CF911F910F91089510
:1011F0008DE00E94F0018AE00E94F00180919A0344
:101200002AE933E08823D1F1803291F170F18C32F8
:1012100079F18A3369F1F9018081811109C07EC0B9
:101220008950823060F031968081882309F477C03C
:10123000803229F0A8F38C3211F08A33A1F7BF0174
:101240006F5F7F4F108291819923C9F0903231F006
:1012500008F456C09C3211F09A3389F46F5F7F4FC7
:10126000FB0190819111F2CF0AC08950823098F62B
:101270002F5F3F4FF90180818111C6CFB901F9017C
:1012800001900020E9F73197E21BF30B329730F120
:10129000F9019081A6E0B1E048E251E010E007C01A
:1012A0001F5F1A3091F14D915C9111971496FA01DC
:1012B00080818913F5CFF9010181FA018181081339
:1012C000EFCFE12FF0E0EE0FFF1FEE0FFF1FE0501A
:1012D000FF4F0190F081E02DCB01099586E991E067
:1012E0000E94D303EAE9F3E08AED93E011928E17AE
:1012F0009F07E1F70F90DF91CF911F910F91089514
:101300009950923008F0BBCFA9CF86E891E00E94B7
:101310008E0380E090E00E948D06E0CFF901BF01CE
:10132000AECF0FE310E088E00E94F00180E20E945F
:10133000F00189810E94F001F801E656FC4F10820D
:101340000F90DF91CF911F910F9108958C01015063
:101350001109E9CF14BC93E095BD86E086BDEEE6A9
:10136000F0E0808181608083A89A1092E703109258
:10137000E603109280009093810087EE9FEF909398
:10138000850080938400B09A08951F920F920FB643
:101390000F9211248F939F9386E086BD8091E60380
:1013A0009091E70301969093E7038093E6039F9162
:1013B0008F910F900FBE0F901F901895F894209169
:1013C000E6033091E703FC0131832083789408958C
:1013D000CF93DF9300D0CDB7DEB79A8389831FC048
:1013E00084E890E027EE3FEFFC013183208386E321
:1013F00090E026E330E0F90120812160FC012083A8
:1014000086E390E0FC018081882F90E0817099272D
:10141000892BB1F389819A8101979A838983898184
:101420009A81892BE9F600000F900F90DF91CF9100
:1014300008950F931F93CF93DF931092DF031092C1
:10144000DE031092E2031092E1031092E003109287
:10145000E30300E010E0C8EED3E0C8010E94D80B1F
:1014600089930F5F1F4F84E0C231D807B1F7DF9136
:10147000CF911F910F910895EF92FF920F931F93B9
:10148000CF93DF9300D01F92CDB7DEB7CE01019688
:101490000E94DE091B8220E015E102E0E02E83E0DD
:1014A000F82E16C01082F901EE0FFF1FE252FC4F1A
:1014B00011821082129FF001139FF00D1124E85148
:1014C000FC4F10822B812F5F2B83223008F043C00A
:1014D00030E0129FF001139FF00D1124E851FC4FF2
:1014E00000818FEF800FF901EE51FC4F8330D0F671
:1014F0008081813009F4B7C008F405C1823009F455
:101500004AC0833009F044C0C901880F991FDC012B
:10151000A652BC4F6D917C9149815A81461757075D
:1015200010F441505109461B570B5A834983129FAF
:10153000D001139FB00D1124A851BC4F1B962D91C3
:101540003C911C974217530780F42B812F5F2B830C
:10155000223008F4BDCF0F900F900F90DF91CF9104
:101560001F910F91FF90EF900895E08286529C4F5B
:101570000E94DE096B8170E0660F771F66527C4F18
:1015800042E050E080EE91E00E9406032B819BCF69
:1015900010822B81DBCF299842E050E0BE016F5FC3
:1015A0007F4F84EF91E00E9406038B81189FF0012A
:1015B0001124E851FC4F61810E945B0161E08B8145
:1015C0000E947D01EB811E9FF0011124E851FC4F28
:1015D000858196810E94E8098B810E9497018B8109
:1015E000282F30E0129FF001139FF00D1124E851D5
:1015F000FC4F478150854115510509F07DC0129F70
:10160000F001139FF00D1124E851FC4F62810E94FC
:101610005B018B81189FF0011124E851FC4F21855B
:101620003285232B09F057C0CE0101960E94DE09B6
:1016300042E050E0BE016F5F7F4F89EE91E00E9473
:101640000603EB81F0E0DF01AE51BC4FFC92EE0FE0
:10165000FF1FE252FC4F808191810196918380832C
:10166000299A2B8130CFC901880F991FFC01E652BE
:10167000FC4F6081718149815A814617570710F4E8
:1016800041505109461B570B5A834983129FF00161
:10169000139FF00D1124E851FC4F23813481421730
:1016A000530708F452CFE08286529C4F0E94DE0915
:1016B0006B8170E0660F771F66527C4F42E050E00E
:1016C0008DEF91E00E9406032B81E22FF0E0EE51B6
:1016D000FC4FE082F8CE60E00E947D01EB811E9F0E
:1016E000F0011124E851FC4F818592850E94E809A0
:1016F0008B810E94970198CFCA010E94E8098B81D3
:10170000282F30E07CCF013009F0D4CE41E050E00A
:10171000BE016D5F7F4F86E092E00E9406032B8141
:10172000822F90E0FC01EE51FC4F0083880F991F3F
:10173000FC01E652FC4F89819A8191838083C3CE5C
:101740000E9429010E94AA090E94AC010E949708E8
:101750000E94190A0E94B1080E943C0AFBCFA29F76
:10176000B001B39FC001A39F700D811D1124911D75
:10177000B29F700D811D1124911D0895911108953E
:1017800081568A5108F4805285580895FB01DC0186
:1017900002C005900D9241505040D8F70895FC01C9
:1017A00005900020E9F7809590958E0F9F1F089572
:1017B000F999FECF92BD81BDF89A992780B5089519
:1017C000262FF999FECF92BD81BDF89A019700B4FA
:1017D000021639F01FBA20BD0FB6F894FA9AF99A9A
:0817E0000FBE0895F894FFCF3D
:1017E8008D062801150431013C064201E9065E0117
:1017F800BA078201BC0594010A05DA016F042302C5
:101808001904680271068F024845202048456C700B
:10181800005645202053686F772056457273696FCC
:101828006E00525520203C312E2E333E2052556EEC
:101838002053746172742070756C736573004F4621
:10184800202053657420616C6C206F7574707574FA
:1018580073204F466620286F72203C312E2E323E70
:1018680029005353202053686F7720536574746997
:101878006E677300535620203C312E2E323E2C3C8E
:10188800302E2E35303E2C3C302E2E35303E205317
:10189800657420566F6C74616765206F6E20312007
:1018A8006F7220322C20706F732E20616E64206E50
:1018B80065672E2070756C736500535420203C3189
:1018C8002E2E323E2C3C302E2E36353533353E2CDE
:1018D8002E2E2C3C302E2E36353533353E20536592
:1018E800742054696D696E67206F6E2031206F72A5
:1018F80020323B20352074696D696E6720706172F3
:101908006D7300534420203C312E2E323E2C3C3047
:101918002E2E36353533353E2C3C302E2E36353589
:1019280033353E2C3C302E2E3235353E20536574EF
:101938002044656C74612074696D696E67206F6EF0
:101948002031206F72203200534320203C312E2E4C
:10195800323E2C3C302E2E36353533353E205365FD
:10196800742072657065617420636F756E740057BA
:1019780052202057726974652F73746F72652061E5
:101988006C6C2073657474696E677320746F20655E
:061998006570726F6D0026
:00000001FF
