:1000000065C07FC07EC07DC07CC07BC07AC079C027
:1000100078C077C076C00DC135C173C072C071C0E1
:1000200070C06FC06EC09F01CF0067003300190021
:100030001000070048454C503A20466972737420FE
:1000400074776F2063686172616374657273206195
:1000500072652074686520636F6D6D616E643B200E
:10006000696D706C656D656E7465643A00526562A9
:100070006F6F7400506172616D6574657220657296
:10008000726F720043757272656E7420737461745E
:10009000757320697300556E6B6E6F776E20636F9A
:1000A0006D6D616E640046554C4C56455253494F38
:1000B0004E005465726D696E616C206D6F6E69746F
:1000C0006F7220666F7220415652000011241FBECD
:1000D000CFE5D4E0DEBFCDBF11E0A0E6B0E0EEEEAC
:1000E000FBE002C005900D92A432B107D9F722E0DF
:1000F000A4E2B1E001C01D92AC3EB207E1F731D0FD
:1001000074C57ECFF8940FB6F894A89581B5886130
:1001100081BD11BC0FBE8CE287BB8FEF88BB80E531
:100120008DB91EB880EC8FB9779BFECFC29882E064
:100130008FB9779BFECF8FE08FB9779BFECF84E896
:100140008FB9779BFECFC29A1DD078940895809185
:10015000E8029091E90201969093E9028093E80207
:100160000895D0DF10D418D4F2DFFDCFE82FF0E0EF
:10017000EE0FFF1FEC5DFF4F859194919F7090BD36
:1001800089B9089582E08BB988E98AB986E880BD8B
:10019000109226021092250210922501109224013D
:1001A00083E0E4DF1092EA021092EB020895DC0192
:1001B0009091250220912602291789F0E92FF0E07D
:1001C000E95DFD4F80818C939F5F903821F0909383
:1001D000250280E008951092250280E0089581E0D4
:1001E00008959091250180912401981720F0981B83
:1001F000892F80950895891B0895E091250191E04C
:100200009E0F9F3F09F490E020912401921759F02E
:10021000F0E0EA5DFE4F8083F8949093250188EB2F
:100220008AB9789408958091EA028F5F8093EA02F8
:1002300008951F920F920FB60F9211248F939F93E0
:10024000EF93FF93E091260281E08E0F0AF480E0A5
:1002500090912502891741F09CB1F0E0E95DFD4FD6
:1002600090838093260205C08091EB028F5F80937C
:10027000EB02FF91EF919F918F910F900FBE0F9026
:100280001F9018951F920F920FB60F9211248F9303
:100290009F93EF93FF93E0912401809125018E17A6
:1002A000A9F0F0E0EA5DFE4F80818CB980912401D5
:1002B0008F5F8F3F19F08093240102C010922401B8
:1002C0009091240180912501981302C088E98AB990
:1002D000FF91EF919F918F910F900FBE0F901F9004
:1002E0001895982F80E3890F8A3310F087E3890FE0
:1002F00008950F931F93CF93DF93662369F0EC016A
:100300006150062F10E00F5F1F4F080F191F8991D2
:1003100074DFC017D107D9F7DF91CF911F910F91EB
:100320000895CF92DF92EF92FF92CF93DF936B010C
:100330007C01EA01DC01CB01072E74E1B695A7959B
:10034000979587957A95D1F7702D8F70CADF88833E
:10035000C701B601662777278F709927C2DF898387
:10036000D701C601072E7CE0B695A795979587958E
:100370007A95D1F7702D8F70B4DF8A83D701C601CB
:1003800088279F70AA27BB27892FABDF8B83D701D4
:10039000C601807F9927AA27BB27689413F8B695D2
:1003A000A795979587951694D1F79BDF8C838C2D15
:1003B0008F7097DF8D838DE08E83DF91CF91FF90DB
:1003C000EF90DF90CF9008951F93CF93DF93182F76
:1003D000EB0182958F7085DF8883812F8F7081DF9D
:1003E00089838DE08A83DF91CF911F9108956F9269
:1003F0007F928F929F92AF92BF92CF92DF92EF92B5
:10040000FF920F931F93CF93DF93CDB7DEB7C05406
:10041000D1090FB6F894DEBF0FBECDBF8C014B01E2
:100420005A01D7D36C0186E3C816D10408F04DC039
:10043000A601B801CE010196C3D3E1E0F0E0EC0FD4
:10044000FD1FEC0DFD1D8AE38083EFEFCE1ADE0A5F
:10045000A114B10461F101E010E00C0F1D1F0C0D9F
:100460001D1DE12CF12C6894662465F8F80160826A
:10047000F401EE0DFF1D7080872D82958F7031DFA6
:10048000F8018183872D8F702CDFF8018283F3E0E0
:10049000CF0ED11C8CE3C816D10408F07501EFEF24
:1004A000EE1AFE0A0D5F1F4FEA14FB04F8F2E1E0BA
:1004B000F0E0EC0FFD1FEC0DFD1D8DE08083B6011B
:1004C0006F5F7F4FCE01019614DFC05CDF4F0FB628
:1004D000F894DEBF0FBECDBFDF91CF911F910F917A
:1004E000FF90EF90DF90CF90BF90AF909F908F9054
:1004F0007F906F900895EF92FF920F931F93CF9389
:10050000DF93CDB7DEB7C054D1090FB6F894DEBF84
:100510000FBECDBF7C015DD38C01CF9710F00EE3F1
:1005200010E0A801B701CE0101964AD3E1E0F0E066
:10053000EC0FFD1FE00FF11F8DE08083FE01E00F47
:10054000F11F8AE08283B8016E5F7F4FCE01019672
:10055000D0DEC05CDF4F0FB6F894DEBF0FBECDBF5C
:10056000DF91CF911F910F91FF90EF9008958B3005
:1005700028F4893058F4811107C008C08C3231F05A
:100580008A3321F0803211F080E0089581E00895EF
:1005900081E08093A702089586EA90E0ACDF089599
:1005A0008DE02BDE8AE029DE08950F931F93CF9311
:1005B000DF93662369F0EC016150062F10E00F5FB6
:1005C0001F4F080F191F899118DEC017D107D9F7DF
:1005D000DF91CF911F910F91089566E08CE790E035
:1005E000E4DFE8EAF2E088EE92E01192E817F9071A
:1005F000E1F708950F931F93CF93DF9384E390E087
:100600007ADFCEDFC0E6D0E00CE710E08A819B8184
:10061000FC0101900020E9F73197BF01681B790BBD
:10062000C4DFBEDF2496C017D10781F7DF91CF91D9
:100630001F910F910895CF93DF9300D000D0CDB7D5
:10064000DEB744E050E0BE016F5F7F4F84E890E08A
:10065000CEDEA6DF0F900F900F900F90DF91CF911D
:100660000895BF92CF92DF92EF92FF920F931F9364
:10067000CF93DF937C018B016A01FB011082118211
:10068000128213824EC08B2D90E0C0970A9718F506
:10069000F80180819181A281B381880F991FAA1FDF
:1006A000BB1F880F991FAA1FBB1F880F991FAA1F66
:1006B000BB1F880F991FAA1FBB1FE097AE01DD0F5C
:1006C000660B770B840F951FA61FB71F808391833E
:1006D000A283B38322C0F80180819181A281B3817A
:1006E000880F991FAA1FBB1F880F991FAA1FBB1F26
:1006F000880F991FAA1FBB1F880F991FAA1FBB1F16
:10070000E797AE01DD0F660B770B840F951FA61FD1
:10071000B71F80839183A283B383F60180818F5FAB
:100720008083F6018081F701E80FF11DB080CB2DA9
:10073000D0E0CE0132D2892B09F0A5CFDF91CF9145
:100740001F910F91FF90EF90DF90CF90BF90089591
:10075000CF93DF9300D000D01F92CDB7DEB71982C0
:10076000AE014F5F5F4FBE016E5F7F4F7ADF8A81C0
:100770009B81AC81BD818E3D904CA105B10561F49A
:100780008DE690E0B8DE98E088E10FB6F894A89581
:1007900081BD0FBE91BDFFCF84E790E0ACDE0F902E
:1007A0000F900F900F900F90DF91CF910895CF93FE
:1007B000982F92959F7020E3290F2A3310F027E39A
:1007C000290F982F9F70C0E3C90FCA3310F0C7E3F9
:1007D000C90F822F12DD8C2F10DDCF9108951F934A
:1007E000CF93DF93C62FD72F182F892FE0DF812FCC
:1007F000DEDF8D2FDCDF8C2FDADF80E2FEDC80E2B3
:10080000FCDCDF91CF911F910895CF92DF92EF92A0
:10081000FF920F931F93CF93DF93CDB7DEB7299746
:100820000FB6F894DEBF0FBECDBF8C011986AE01A6
:10083000475F5F4FBE016F5F7F4F13DF89819A81F2
:10084000AB81BC818E3D904CA105B10549F58985F0
:100850008F5F8987AE01475F5F4FBE016F5F7F4F3C
:10086000C801FFDE89858F5F8987AE01475F5F4FD3
:10087000BE016B5F7F4FC801F4DEC980DA80EB8078
:10088000FC808D81F60180836FE083E890E08DDE4F
:10089000C701B601A4DFF601808189DF81DE03C0D4
:1008A00084E790E028DE29960FB6F894DEBF0FBEED
:1008B000CDBFDF91CF911F910F91FF90EF90DF900F
:1008C000CF9008958F929F92AF92BF92CF92DF9276
:1008D000EF92FF920F931F93CF93DF93CDB7DEB7C5
:1008E00029970FB6F894DEBF0FBECDBF8C011986D5
:1008F000AE01475F5F4FBE016F5F7F4FB2DE8985FC
:100900008F5F8987AE01475F5F4FBE016B5F7F4F8F
:10091000C801A7DECD80DE8089809A80AB80BC8054
:10092000C114D104E1F0740100E010E0C8018F703F
:100930009927892B21F434DEC501B40150DFF7017A
:1009400081917F0134DF80E258DC0F5F1F4FFFEFA2
:100950008F1A9F0AAF0ABF0A0C151D0538F320DE57
:1009600029960FB6F894DEBF0FBECDBFDF91CF91B1
:100970001F910F91FF90EF90DF90CF90BF90AF90BD
:100980009F908F9008950CDE82EB90E0B4DD86EAB4
:1009900090E0B1DD22DE0895DF92EF92FF920F9397
:1009A0001F93CF93DF931F92CDB7DEB7CE01019691
:1009B000FEDB8111E9C08981883019F08D3041F169
:1009C00008C08091A802882301F1E9EAF2E011E071
:1009D0000BC09091A802992361F1E9EAF2E011E0DD
:1009E00020C01F5F103429F081918111FACF1123AB
:1009F00061F088E002DC80E200DC8981FEDBE12F2F
:100A0000F0E0E955FD4F1082BFC087E0F6DBBCC0C7
:100A1000C7DD8091A702811117C01FC01F5F10346E
:100A200029F091919111FACF103421F487E0E5DBA0
:100A3000ABC010E0E2DB898190E0BAD0E12FF0E0BA
:100A4000E855FD4F8083A0C08091A802882309F457
:100A50007AC0E9EAF2E061E072C08091A8028111F7
:100A60000FC00F2EF8EAEF2EF2E0FF2EF02D78C027
:100A70008FEFE81AF80AD7018C91811107C070C076
:100A80000F2EF8EAEF2EF2E0FF2EF02D70DD81112F
:100A9000EFCFF701D080D11009C0870163C00F5F8D
:100AA0001F4FD801DC90D11002C00BC087018D2DE3
:100AB0005EDD8823A1F3DD2021F0F80110820F5FB5
:100AC0001F4FD8018C91811108C04CC00F5F1F4F80
:100AD000F8018081882309F445C049DD8111F6CFF2
:100AE00041C0D7013C91E0E6F0E080E090E0628117
:100AF0007381DB012C91321340C0D70111964C91C8
:100B0000DB0111962C91421338C0873091056CF4AB
:100B1000880F991F880F991FFC01E05AFF4F019021
:100B2000F081E02DC801099519C086E990E0E3DC69
:100B300080E090E05FDD12C06F5F603429F081914A
:100B40008111FACF01C060E088EA92E02EDD28DD55
:100B50008091A802883411F41092A7023EDD14C0DF
:100B60008701AFCFF70101900020E9F73197EE1927
:100B7000FF09329708F0B5CFF1CF01963496873050
:100B8000910509F0B4CFD1CF0F90DF91CF911F9194
:100B90000F91FF90EF90DF900895911123C0805343
:100BA0008A5028F0865C806281568650B8F7089596
:100BB0009111089581568A5108F4805285580895FC
:100BC000FB01DC0102C005900D9241505040D8F766
:100BD0000895FC0105900020E9F7809590958E0F0F
:0E0BE0009F1F0895992788270895F894FFCF46
:100BEE0062049300FA02B400CC02BD00A803CE004A
:100BFE000504DE001B030701C80216015445524DC1
:100C0E003E20004D656D6F7279207365742061749E
:100C1E003A2000534D20203C302E2E464646464666
:100C2E00463E2C3C302E2E46463E2053686F772093
:100C3E004D656D004845202048456C700056452096
:100C4E002053686F772056457273696F6E00424F5E
:100C5E0020203C636F64653E20424F6F7400574DF9
:100C6E0020203C636F64653E2C3C302E2E4646465B
:100C7E004646463E2C3C302E2E46463E2057726946
:100C8E007465204D656D005354202053686F772096
:100C9E00737461746500484120204F6E6C79206535
:040CAE0063686F0008
:00000001FF
