:100000000C94F3000C941F010C941F010C941F011D
:100010000C941F010C941F010C941F010C941F01E0
:100020000C941F010C941F010C941F010C941F01D0
:100030000C941F010C941F010C941F010C941F01C0
:100040000C94CA090C941F010C94FB010C94260219
:100050000C941F010C941F010C941F010C941F01A0
:100060000C941F010C941F0140039F01CF006700F7
:1000700033002100100048454C503A204669727305
:10008000742074776F206368617261637465727342
:10009000206172652074686520636F6D6D616E64A8
:1000A0003B20696D706C656D656E7465643A004FD8
:1000B0006666005265626F6F740050756C736520E0
:1000C000436F756E7473205250543A2020202020C4
:1000D000200044656C74612044542C2044502C2032
:1000E000444D3A2020202020200054696D696E671D
:1000F000732054302C54312C54322C54332C54341F
:100100003A00566F6C746167652056312C20563268
:100110003A20202020202020200053657474696E2E
:100120006773206368616E6E656C3A202020202022
:10013000200053657474696E67733A006572726F5C
:100140007200506172616D65746572206D697373C0
:10015000696E6700506172616D65746572206F75BC
:1001600074206F6620626F756E64730057726974D5
:10017000696E6720746F20656570726F6D00556ED3
:100180006B6E6F776E20636F6D6D616E64005445AA
:10019000524D3E005374696D756C61746F722056D8
:1001A000657273696F6E20322E30302E303000430E
:1001B0006F6D6D616E64205465726D696E616C2047
:1001C000666F72207374696D756C61746F72004E26
:1001D0006577506572696F640046494E495348001F
:1001E00053544152540011241FBECFEFD8E0DEBF5C
:1001F000CDBF84B78093580414BE0FB6F894A89569
:1002000080916000886180936000109260000FBE52
:1002100012E0A0E0B1E0EEE4F8E102C005900D923A
:10022000A43BB107D9F724E0A4EBB2E001C01D92D2
:10023000A835B207E1F70E94D30B0C94250C0C945F
:100240000000F8948CEF8AB990EA9BB99FE294B9C8
:1002500085B980E287B988B980E58CBD1DBC7894EA
:100260000895823080F0862F880F880F680F2A98B3
:1002700082E18EBD0DB407FEFDCF6EBD0DB407FE4D
:10028000FDCF2A9A0895862F880F880F680F2A9825
:1002900081E18EBD0DB407FEFDCF6EBD0DB407FE2E
:1002A000FDCF2A9A0895813079F058F0823019F004
:1002B000833021F008955F985E9A08955D985C9A66
:1002C00008955B985A9A08952898299A089581303C
:1002D00079F058F0823019F0833021F008955F9A58
:1002E0005E9A08955D9A5C9A08955B9A5A9A089569
:1002F000289A299A0895813061F048F0823019F0E7
:10030000833019F008955E9808955C9808955A987E
:10031000089529980895E82FF0E0EE0FFF1FEA599D
:10032000FF4F859194919F709093C5008093C40076
:10033000089582E08093C00088E98093C10086E040
:100340008093C20010923703109236031092B502C8
:100350001092B402EEE6F0E0859194919F70909334
:10036000C5008093C4001092000410920104089507
:10037000DC019091360320913703291789F0E92F8A
:10038000F0E0E85CFC4F80818C939F5F903621F019
:100390009093360380E008951092360380E008952C
:1003A00081E008959091B5028091B402981710F4FD
:1003B000891B08958058891B0895E091B50291E04A
:1003C0009E0F97FD16C02091B402921761F0F0E0E5
:1003D000EA54FD4F8083F8949093B50288EB8093A4
:1003E000C10078940895809100048F5F8093000489
:1003F000089590E0E8CF1F920F920FB60F9211244C
:100400008F939F93EF93FF93E091370381E08E0FDB
:10041000803608F080E090913603891789F090913A
:10042000C600F0E0E85CFC4F908380933703FF91B7
:10043000EF919F918F910F900FBE0F901F90189585
:10044000809101048F5F80930104F1CF1F920F927E
:100450000FB60F9211248F939F93EF93FF93E09128
:10046000B4028091B5028E17D1F0F0E0EA54FD4F4E
:1004700080818093C6008091B4028F5F87FD13C096
:100480008093B4029091B502981749F0FF91EF91D3
:100490009F918F910F900FBE0F901F90189588E934
:1004A0008093C100F3CF1092B40280E0EBCF0F93A2
:1004B0001F93CF93DF93662371F0EC016150062FF9
:1004C00010E00F5F1F4F080F191F89910E94DD0177
:1004D000C017D107D1F7DF91CF911F910F910895E8
:1004E0000F931F93FA018B019C0100271127207F96
:1004F0003327B4E13695279517950795BA95D1F727
:1005000040E3400F4A3310F047E3400F40838B0134
:100510009C01002711272F703327890122273327B9
:1005200040E3400F4A3310F047E3400F41838B0113
:100530009C010027107F222733275CE03695279502
:10054000179507955A95D1F740E3400F4A3310F0BD
:1005500047E3400F42838B019C0100271F70222735
:100560003327012F122F232F332740E3400F4A3325
:1005700010F047E3400F43838B019C01007F11275C
:100580002227332784E036952795179507958A9576
:10059000D1F740E3400F4A3310F047E3400F448364
:1005A0006F7080E3860F8A3310F087E3860F8583B0
:1005B0008DE086831F910F910895FB01282F2295CE
:1005C0002F7090E3920F9A3310F097E3920F90837D
:1005D0008F7090E3980F9A3310F097E3980F918300
:1005E0008DE082830895AF92BF92CF92DF92EF9217
:1005F000FF920F931F93CF93DF93CDB7DEB7C05415
:10060000D1090FB6F894DEBF0FBECDBF5C017B01F0
:100610008A010E94020C6C0186E3C816D10490F096
:10062000C05CDF4F0FB6F894DEBF0FBECDBFDF91C9
:10063000CF911F910F91FF90EF90DF90CF90BF90DF
:10064000AF900895A601B501CE0101960E94F90B65
:10065000E1E0F0E0EC0FFD1FEC0DFD1D8AE380836F
:10066000A6014F5F5F4F0115110561F1E1E0F0E078
:10067000EC0FFD1FE40FF51F20E030E070E2708307
:10068000D701A20FB31F9C91692F62956F7080E311
:10069000860F8A3310F087E3860F81839F7080E393
:1006A000890F8A3310F087E3890F82834D5F5F4F94
:1006B0004C33510508F098012F5F3F4F33962017B8
:1006C0003107E8F2E1E0F0E0EC0FFD1FE40FF51F69
:1006D0008DE0808311E0140F09F4A2CFFE01319662
:1006E0007F0100E0F70181917F010E94DD010F5F32
:1006F0000117C0F395CFEF92FF920F931F93CF9303
:10070000DF93CDB7DEB7C054D1090FB6F894DEBF82
:100710000FBECDBF7C010E94020C8C01CF9710F060
:100720000EE310E0A801B701CE0101960E94F90B7B
:10073000E1E0F0E0EC0FFD1FE00FF11F8DE08083A2
:10074000FE01E00FF11F8AE082830E5FCE01019669
:100750007C0110E0F70181917F010E94DD011F5FA4
:100760001017C0F3C05CDF4F0FB6F894DEBF0FBEAA
:10077000CDBFDF91CF911F910F91FF90EF90089522
:10078000EF92FF920F931F93CF93DF93CDB7DEB716
:10079000C054D1090FB6F894DEBF0FBECDBF8C0197
:1007A0000E94020C7C0181E4E816F10418F080E458
:1007B000E82EF12CA701B801CE0101960E94F90B99
:1007C000EE2091F08E010F5F1F4FEA94F12CEFEFB6
:1007D000EE1AFE0AE00EF11EF80181918F010E94CF
:1007E000DD010E151F05C1F780E20E94DD01C05C2E
:1007F000DF4F0FB6F894DEBF0FBECDBFDF91CF91B4
:100800001F910F91FF90EF9008950F931F93CF9337
:10081000DF9300D000D01F92CDB7DEB7AC01FE0150
:1008200031968E010A5F1F4F9A01ADECBCEC0E941D
:10083000E20B969587959695879596958795BC0139
:10084000660F771F9C01220F331F220F331F220FC9
:10085000331F260F371F421B530B4193AC01E01788
:10086000F10711F790E015E01150E1E0F0E0EC0F36
:10087000FD1FE10FF11D8081811109C01123C1F01D
:10088000992391F380E30E94DD0191E0EDCF805D3B
:100890000E94DD01112311F091E0E6CF0F900F903F
:1008A0000F900F900F90DF91CF911F910F910895AE
:1008B00080E30F900F900F900F900F90DF91CF91EA
:1008C0001F910F910C94DD018DE00E94DD018AE003
:1008D0000C94DD018CE20E94DD0180E20C94DD01CC
:1008E00084E991E00C947B0383EB90E00E947B030E
:1008F0009AE088E10FB6F894A895809360000FBE47
:1009000090936000FFCFDC01AC0160E020E030E0BC
:100910004F5F5F4FFA013197908190539A3078F48E
:100920006F5F6630A8F7F901EE0FFF1FEE0FFF1F94
:100930002E0F3F1F220F331F290F311DE9CF6623D2
:1009400029F14A1B5B0B215031092430310588F510
:10095000FD01E40FF11D60E040E050E09191905303
:100960009A3090F46F5F6630C8F7DA01AA0FBB1FA8
:10097000AA0FBB1F4A0F5B1F440F551F490F511D84
:10098000919190539A3070F3611108C082E491E024
:100990000E94C0038CE391E00C947B0385E1829F6D
:1009A000F001839FF00D1124EC5FFB4F548B438BC0
:1009B000089584E591E00E94C0038CE391E00C94DB
:1009C0007B038F929F92AF92BF92CF92DF92EF9272
:1009D000FF920F931F93CF93DF9300D000D000D0EE
:1009E000CDB7DEB74C019C0180E0A0E0B0E02F5F06
:1009F0003F4FA90141505109FA01908190539A301B
:100A000078F48F5F863098F7AD01440F551F440F7F
:100A1000551FA40FB51FAA0FBB1FA90FB11DE7CF0C
:100A200081111AC082E491E00E94C0038CE391E03E
:100A300026960FB6F894DEBF0FBECDBFDF91CF91E3
:100A40001F910F91FF90EF90DF90CF90BF90AF90EC
:100A50009F908F900C947B035D01F1E0AF1AB10879
:100A600084E0A816B10408F05BC028198E010F5F5E
:100A70001F4F7E0197E0E90EF11CF401E20FF11D1A
:100A80009F0140E060E070E02F5F3F4FD901119778
:100A90009C9190539A3078F44F5F4630A8F76B01E1
:100AA000CC0CDD1CCC0CDD1C6C0D7D1D660F771F86
:100AB000690F711DE9CF442309F4B4CFF8016193A4
:100AC00071938F012819EE15FF05B9F68D819E816E
:100AD0008B30910528F525E12A9DF0012B9DF00D25
:100AE0001124EC5FFB4F29813A81368725872B81C2
:100AF0003C81308B2787928B818B26960FB6F8949A
:100B0000DEBF0FBECDBFDF91CF911F910F91FF9040
:100B1000EF90DF90CF90BF90AF909F908F9008950F
:100B200084E591E081CF8F929F92AF92BF92CF9256
:100B3000DF92EF92FF920F931F93CF93DF93CDB786
:100B4000DEB72A970FB6F894DEBF0FBECDBF8C017B
:100B50009C0190E0E0E0F0E02F5F3F4FD90111975A
:100B60008C9180538A3078F49F5F9630A8F7AF015C
:100B7000440F551F440F551FE40FF51FEE0FFF1FC5
:100B8000E80FF11DE9CF992309F45CC07F0181E0F2
:100B9000E81AF10894E0E916F10408F06DC0201B92
:100BA000DE0111966E01EBE0CE0ED11C4D01C801A5
:100BB000820F911D9C0140E060E070E02F5F3F4F8D
:100BC000F9013197908190539A3078F44F5F463015
:100BD000A8F75B01AA0CBB1CAA0CBB1C6A0D7B1DF1
:100BE000660F771F690F711DE9CF442359F1F40196
:100BF000619371934F01201BEC15FD05C1F625E1B2
:100C00002E9DC0012F9D900D1124FC01E95FFB4F2B
:100C10008D919D9181939193AC15BD05C9F72A964D
:100C20000FB6F894DEBF0FBECDBFDF91CF911F91FD
:100C30000F91FF90EF90DF90CF90BF90AF909F907B
:100C40008F90089582E491E00E94C0038CE391E0CC
:100C50002A960FB6F894DEBF0FBECDBFDF91CF91BD
:100C60001F910F91FF90EF90DF90CF90BF90AF90CA
:100C70009F908F900C947B0384E591E0E5CFFC017D
:100C8000AC0160E020E030E04F5F5F4FDA01119788
:100C90009C9190539A3078F46F5F6630A8F7D90131
:100CA000AA0FBB1FAA0FBB1F2A0F3B1F220F331F08
:100CB000290F311DE9CF662309F447C04E1B5F0B96
:100CC000215031092430310508F04DC0CF01840F87
:100CD000911DAC0180E060E070E04F5F5F4FDA0192
:100CE00011979C9190539A3078F48F5F8630A8F7D3
:100CF000DB01AA0FBB1FAA0FBB1F6A0F7B1F660F6A
:100D0000771F690F711DE9CF8823F9F04E1B5F0B28
:100D1000E40FF11D80E040E050E0919190539A3053
:100D200090F48F5F8630C8F7DA01AA0FBB1FAA0FB5
:100D3000BB1F4A0F5B1F440F551F490F511D919157
:100D400090539A3070F3811108C082E491E00E94C0
:100D5000C0038CE391E00C947B036333710518F4BA
:100D60004333510540F084E591E00E94C0038CE3D9
:100D700091E00C947B0385E1829FF001839FF00D4D
:100D80001124EC5FFB4F6183428308950F931F93FF
:100D9000CF93DF938CE691E00E947B0304E014E0A4
:100DA000C0E0D0E0F80161918F01CE010E94130CE8
:100DB0002196F0E0C435DF07A9F7DF91CF911F91AD
:100DC0000F910895AF92BF92DF92EF92FF920F932F
:100DD0001F93CF93DF9300D000D01F92CDB7DEB723
:100DE00082E391E00E947B0304E014E0EE24E394AC
:100DF000F12C0E94640403C08B818F5F8B830E945F
:100E0000D2018035C8F38AE191E00E94C003C70196
:100E10000E9405040E94640403C08C818F5F8C8350
:100E20000E94D2018035C8F382E091E00E94C003A5
:100E3000F801818190E00E9405040E946A04F80193
:100E4000828190E00E9405040E94640403C08D81A9
:100E50008F5F8D830E94D2018035C8F38AEE90E0C7
:100E60000E94C003F801838194810E940504580107
:100E7000F5E0AF0EB11C84E0D82E0E946A04F501A3
:100E8000819191915F010E940504DA94D110F5CF10
:100E90000E94640403C08A818F5F8A830E94D2010A
:100EA0008035C8F382ED90E00E94C003F80185858B
:100EB00096850E9405040E946A04F801878590893E
:100EC0000E9405040E946A04F801818992890E94A7
:100ED00005040E94640403C089818F5F89830E9496
:100EE000D2018035C8F38AEB90E00E94C003F8017C
:100EF000838994890E9405040E9464040B5E1F4F3D
:100F0000FFEFEF1AFF0A85E0E816F10409F071CF50
:100F10000F900F900F900F900F90DF91CF911F9136
:100F20000F91FF90EF90DF90BF90AF900895AF9238
:100F3000BF92CF92DF92EF92FF920F931F93CF93C6
:100F4000DF931F92CDB7DEB786E790E00E947B0368
:100F50000E94640486E0C82E81E0D82E9EE2A92E6D
:100F600091E0B92EE8E0F0E02CE2E22E21E0F22E52
:100F70000E2F03C089818F5F89830E94D201803543
:100F8000C8F3002349F010E0F70181917F010E942E
:100F9000DD011F5F0113F8CF0E946404AC14BD048F
:100FA00071F0F601E080F180F70101900020E9F78F
:100FB0003197EE19FF0984E0C80ED11CD9CF0F90EC
:100FC000DF91CF911F910F91FF90EF90DF90CF9025
:100FD000BF90AF900895FC0140E020E030E0919197
:100FE00090539A3090F44F5F4630C8F7B901660FBE
:100FF000771F660F771F260F371F220F331F290F0A
:10100000311D919190539A3070F341110AC081E0E3
:10101000809304048093190480932E0480934304E6
:101020000895215031092430310558F485E1829F1B
:10103000F001839FF00D1124EC5FFB4F81E0808372
:10104000089584E591E00E94C0038CE391E00C9444
:101050007B03FC0140E020E030E0919190539A3016
:1010600090F44F5F4630C8F7B901660F771F660FDF
:10107000771F260F371F220F331F290F311D919124
:1010800090539A3070F341110DC08FEA90E00E94A6
:101090007B03109204041092190410922E041092F3
:1010A00043040895215031092430310550F485E17D
:1010B000829FF001839FF00D1124EC5FFB4F1082A3
:1010C000089584E591E00E94C0038CE391E00C94C4
:1010D0007B030F931F93CF93DF93EC018A01DB0116
:1010E0008C919E01280F311D50E0E0E0F0E02F5F71
:1010F0003F4FD90111979C9190539A3078F45F5FDC
:101100005630A8F7DF01AA0FBB1FAA0FBB1FEA0FBB
:10111000FB1FEE0FFF1FE90FF11DE9CF552371F003
:10112000D801ED93FC932C1B3D0B2150FB01208338
:1011300081E0DF91CF911F910F91089580E0DF91C1
:10114000CF911F910F9108950E9464048FEA91E05E
:101150000E947B0384E991E00E947B038EE891E08A
:101160000E94C003E8E9F3E0119283E0E83DF8074C
:10117000D9F708950F931F93CF93DF931F92CDB7A5
:10118000DEB7CE0101960E94B80181111CC0898191
:101190008830F9F08D30A9F1E8E9F3E004C093E07C
:1011A000E83DF90729F18F010859134091919111F8
:1011B000F6CF0E94DD01898190E00E94F10BF801D9
:1011C000E856FC4F80830F90DF91CF911F910F91D4
:1011D0000895E8E9F3E080E090E005C001968034EE
:1011E000910509F4A3C021912111F8CF8111B3C059
:1011F00087E00E94DD010F90DF91CF911F910F9149
:1012000008950E9464048091980328E933E08823BC
:10121000D1F1803291F170F18C3279F18A3369F138
:10122000F9018081811109C07EC08950823060F04F
:1012300031968081882309F477C0803229F0A8F3A1
:101240008C3211F08A33A1F7BF016F5F7F4F10829C
:1012500091819923C9F0903231F008F456C09C3244
:1012600011F09A3389F46F5F7F4FFB0190819111E8
:10127000F2CF0AC08950823098F62F5F3F4FF901B4
:1012800080818111C6CFB901F90101900020E9F7F1
:101290003197E21BF30B329730F1F9019081A6E010
:1012A000B1E04CE251E010E007C01F5F1B3091F14C
:1012B0004D915C9111971496FA0180818913F5CFB5
:1012C000F9010181FA0181810813EFCFE12FF0E0EC
:1012D000EE0FFF1FEE0FFF1FE050FF4F0190F08158
:1012E000E02DCB0109958EE891E00E94C003E8E96A
:1012F000F3E088ED93E011928E179F07E1F70F90CE
:10130000DF91CF911F910F9108959950923008F07D
:10131000BBCFA9CF8EE791E00E947B0380E090E0F5
:101320000E949707E0CFF901BF01AECF0FE310E0B5
:1013300088E00E94DD0180E20E94DD0189810E9437
:10134000DD01F801E856FC4F10820F90DF91CF913C
:101350001F910F9108958C0101501109E9CF14BC20
:1013600093E095BD86E086BDEEE6F0E08081816089
:101370008083A89A109203041092020410928000B5
:101380009093810087EE9FEF909385008093840077
:10139000B09A08951F920F920FB60F9211248F9357
:1013A0009F9386E086BD809102049091030401968C
:1013B00090930304809302049F918F910F900FBE2E
:1013C0000F901F901895F894209102043091030417
:1013D000FC013183208378940895CF93DF9300D06C
:1013E000CDB7DEB79A8389831FC084E890E027EEEB
:1013F0003FEFFC013183208386E390E026E330E079
:10140000F90120812160FC01208386E390E0FC014A
:101410008081882F90E081709927892BB1F3898191
:101420009A8101979A83898389819A81892BE9F628
:1014300000000F900F90DF91CF9108950F931F93AD
:10144000CF93DF93E4EFF3E08CEF93E0CCEDD3E0C8
:1014500048ED53E011921192DC011D92CD011992D9
:101460001992DA011D92AD01B3E0EC3FFB0791F751
:1014700000E010E0C4E0D4E0C8010E940B0C8993A6
:101480000F5F1F4F24E0C835D207B1F7DF91CF912E
:101490001F910F9108952F923F924F925F926F92FA
:1014A0007F928F929F92AF92BF92CF92DF92EF92F4
:1014B000FF920F931F93CF93DF9300D000D0CDB74F
:1014C000DEB704E014E08CEE682E83E0782E9CEF0B
:1014D000C92E93E0D92E24EF822E23E0922E3CEDEC
:1014E000A32E33E0B32E44EE242E43E0342E58EDE9
:1014F000452E53E0552E81E48B83E12CF12CEC82B8
:10150000F80180818150833050F0F6011082F4019F
:1015100011821082F50111821082F2011082CE0137
:1015200001960E94E309FFEFEF1AFF0AF60180819E
:10153000813009F494C008F489C0823009F44DC0A8
:10154000833009F047C0F3012081318189819A817C
:101550008217930708F4A1C0821B930B9A83898397
:10156000F801238534858217930708F0A7C00B5E26
:101570001F4FF2E06F0E711C8FEFC81AD80AE2E01D
:101580008E0E911CF2E0AF0EB11C82E0280E311CD1
:10159000EFEF4E1A5E0AFB81FF5FFB8384E0E816E3
:1015A000F10409F0ACCF0F900F900F900F90DF91E6
:1015B000CF911F910F91FF90EF90DF90CF90BF9050
:1015C000AF909F908F907F906F905F904F903F90E3
:1015D0002F900895F6011082CACF45988B810E9402
:1015E000DD01F80161818C810E9431018C810E94B2
:1015F0005301F801858196810E94ED098C810E943A
:101600007B01F80187819085009709F054C0F801AB
:1016100062818C810E943101F80181859285892B3C
:10162000F1F5CE0101960E94E30983E0F601808383
:10163000F40180819181019691838083F5018081FD
:101640009181019691838083459A91CFF801F08131
:10165000FC83F13009F483C0F801108288CFF301D4
:101660002081318189819A8182179307A0F0821BA2
:10167000930B9A838983F80123813481821793071E
:1016800008F475CF82E08083C3010E94E30982E001
:10169000F60180836CCF0197EACF01975DCF8C81F3
:1016A0000E946701F801818592850E94ED098C8175
:1016B0000E947B01B6CF0E94ED09A9CF838994894E
:1016C000009739F0F401408151814817590708F01B
:1016D0005EC0F801858596850097B9F1F5016081B6
:1016E0007181F801478550896417750788F1F10108
:1016F000408151818417950720F4481B590B518371
:101700004083F20180818F5F808390E0F8014189FE
:1017100052894817590728F4F2011082F1013183E8
:1017200020838FEC91E00E94C003C7010E94050452
:101730000E946A04F101808191810E9405040E9447
:101740006404F5011182108203C0F101318320830A
:1017500082E0F6018083C3010E94E30908CF80EE96
:1017600091E00E94C003C7010E9405040E94640426
:101770008C81F601808389819A81F3019183808332
:10178000F80183859485F10191838083F0CE89ED02
:1017900091E00E94C003C7010E9405040E946404F6
:1017A000F8011082D5CF0E9421010E94AF090E944A
:1017B00099010E94A4080E941E0A0E94BA080E9471
:1017C0004B0AFBCFA29FB001B39FC001A39F700D36
:1017D000811D1124911DB29F700D811D1124911D39
:1017E00008959111089581568A5108F480528558C0
:1017F0000895FB01DC0102C005900D92415050405C
:10180000D8F70895FC0105900020E9F780959095A0
:101810008E0F9F1F0895F999FECF92BD81BDF89A52
:10182000992780B50895262FF999FECF92BD81BDE5
:10183000F89A019700B4021639F01FBA20BD0FB60E
:0E184000F894FA9AF99A0FBE0895F894FFCF23
:10184E0097072C0170043501EB0746012908620148
:10185E0074048601E206A7013F06B9019305F5015E
:10186E00E104340283046F02C60696024845202026
:10187E0048456C70005645202053686F77205645BA
:10188E007273696F6E00525520203C312E2E343EFD
:10189E002052556E2053746172742070756C73658E
:1018AE0073004F46202053657420616C6C206F7559
:1018BE007470757473204F466620286F72203C3109
:1018CE002E2E343E2900424F2020424F6F742F722D
:1018DE006573657420286669726D7761726520750F
:1018EE00706461746529005353202053686F77200C
:1018FE0053657474696E677300535620203C312E05
:10190E002E343E2C3C302E2E35303E2C3C302E2E9E
:10191E0035303E2053657420566F6C746167653B9D
:10192E0020706F732E20616E64206E65672E20709E
:10193E00756C736500535420203C312E2E343E2C92
:10194E003C302E2E36353533353E2C2E2E2C3C305B
:10195E002E2E36353533353E205365742054696D41
:10196E00696E673B20352074696D696E6720706102
:10197E00726D7300534420203C312E2E343E2C3C8D
:10198E00302E2E36353533353E2C3C302E2E363518
:10199E003533353E2C3C302E2E3235353E205365B8
:1019AE00742044656C74612074696D696E670053B0
:1019BE004320203C312E2E343E2C3C302E2E3635FC
:1019CE003533353E20536574207265706561742021
:1019DE00636F756E74005752202057726974652FAD
:1019EE0073746F726520616C6C2073657474696EAC
:0419FE00677300000B
:00000001FF
